{
  "contractName": "StarNotary",
  "abi": [
    {
      "constant": true,
      "inputs": [
        {
          "name": "interfaceId",
          "type": "bytes4"
        }
      ],
      "name": "supportsInterface",
      "outputs": [
        {
          "name": "",
          "type": "bool"
        }
      ],
      "payable": false,
      "stateMutability": "view",
      "type": "function"
    },
    {
      "constant": true,
      "inputs": [
        {
          "name": "",
          "type": "uint256"
        }
      ],
      "name": "starsForSale",
      "outputs": [
        {
          "name": "",
          "type": "uint256"
        }
      ],
      "payable": false,
      "stateMutability": "view",
      "type": "function"
    },
    {
      "constant": true,
      "inputs": [
        {
          "name": "tokenId",
          "type": "uint256"
        }
      ],
      "name": "getApproved",
      "outputs": [
        {
          "name": "",
          "type": "address"
        }
      ],
      "payable": false,
      "stateMutability": "view",
      "type": "function"
    },
    {
      "constant": false,
      "inputs": [
        {
          "name": "to",
          "type": "address"
        },
        {
          "name": "tokenId",
          "type": "uint256"
        }
      ],
      "name": "approve",
      "outputs": [],
      "payable": false,
      "stateMutability": "nonpayable",
      "type": "function"
    },
    {
      "constant": false,
      "inputs": [
        {
          "name": "from",
          "type": "address"
        },
        {
          "name": "to",
          "type": "address"
        },
        {
          "name": "tokenId",
          "type": "uint256"
        }
      ],
      "name": "transferFrom",
      "outputs": [],
      "payable": false,
      "stateMutability": "nonpayable",
      "type": "function"
    },
    {
      "constant": false,
      "inputs": [
        {
          "name": "from",
          "type": "address"
        },
        {
          "name": "to",
          "type": "address"
        },
        {
          "name": "tokenId",
          "type": "uint256"
        }
      ],
      "name": "safeTransferFrom",
      "outputs": [],
      "payable": false,
      "stateMutability": "nonpayable",
      "type": "function"
    },
    {
      "constant": true,
      "inputs": [
        {
          "name": "tokenId",
          "type": "uint256"
        }
      ],
      "name": "ownerOf",
      "outputs": [
        {
          "name": "",
          "type": "address"
        }
      ],
      "payable": false,
      "stateMutability": "view",
      "type": "function"
    },
    {
      "constant": true,
      "inputs": [
        {
          "name": "owner",
          "type": "address"
        }
      ],
      "name": "balanceOf",
      "outputs": [
        {
          "name": "",
          "type": "uint256"
        }
      ],
      "payable": false,
      "stateMutability": "view",
      "type": "function"
    },
    {
      "constant": false,
      "inputs": [
        {
          "name": "to",
          "type": "address"
        },
        {
          "name": "approved",
          "type": "bool"
        }
      ],
      "name": "setApprovalForAll",
      "outputs": [],
      "payable": false,
      "stateMutability": "nonpayable",
      "type": "function"
    },
    {
      "constant": false,
      "inputs": [
        {
          "name": "from",
          "type": "address"
        },
        {
          "name": "to",
          "type": "address"
        },
        {
          "name": "tokenId",
          "type": "uint256"
        },
        {
          "name": "_data",
          "type": "bytes"
        }
      ],
      "name": "safeTransferFrom",
      "outputs": [],
      "payable": false,
      "stateMutability": "nonpayable",
      "type": "function"
    },
    {
      "constant": true,
      "inputs": [
        {
          "name": "owner",
          "type": "address"
        },
        {
          "name": "operator",
          "type": "address"
        }
      ],
      "name": "isApprovedForAll",
      "outputs": [
        {
          "name": "",
          "type": "bool"
        }
      ],
      "payable": false,
      "stateMutability": "view",
      "type": "function"
    },
    {
      "anonymous": false,
      "inputs": [
        {
          "indexed": true,
          "name": "from",
          "type": "address"
        },
        {
          "indexed": true,
          "name": "to",
          "type": "address"
        },
        {
          "indexed": true,
          "name": "tokenId",
          "type": "uint256"
        }
      ],
      "name": "Transfer",
      "type": "event"
    },
    {
      "anonymous": false,
      "inputs": [
        {
          "indexed": true,
          "name": "owner",
          "type": "address"
        },
        {
          "indexed": true,
          "name": "approved",
          "type": "address"
        },
        {
          "indexed": true,
          "name": "tokenId",
          "type": "uint256"
        }
      ],
      "name": "Approval",
      "type": "event"
    },
    {
      "anonymous": false,
      "inputs": [
        {
          "indexed": true,
          "name": "owner",
          "type": "address"
        },
        {
          "indexed": true,
          "name": "operator",
          "type": "address"
        },
        {
          "indexed": false,
          "name": "approved",
          "type": "bool"
        }
      ],
      "name": "ApprovalForAll",
      "type": "event"
    },
    {
      "constant": false,
      "inputs": [
        {
          "name": "_name",
          "type": "string"
        },
        {
          "name": "_story",
          "type": "string"
        },
        {
          "name": "_ra",
          "type": "string"
        },
        {
          "name": "_dec",
          "type": "string"
        },
        {
          "name": "_mag",
          "type": "string"
        },
        {
          "name": "_cen",
          "type": "string"
        },
        {
          "name": "_tokenId",
          "type": "uint256"
        }
      ],
      "name": "createStar",
      "outputs": [],
      "payable": false,
      "stateMutability": "nonpayable",
      "type": "function"
    },
    {
      "constant": false,
      "inputs": [
        {
          "name": "_tokenId",
          "type": "uint256"
        },
        {
          "name": "_price",
          "type": "uint256"
        }
      ],
      "name": "putStarUpForSale",
      "outputs": [],
      "payable": false,
      "stateMutability": "nonpayable",
      "type": "function"
    },
    {
      "constant": false,
      "inputs": [
        {
          "name": "_tokenId",
          "type": "uint256"
        }
      ],
      "name": "buyStar",
      "outputs": [],
      "payable": true,
      "stateMutability": "payable",
      "type": "function"
    },
    {
      "constant": true,
      "inputs": [
        {
          "name": "_ra",
          "type": "string"
        },
        {
          "name": "_dec",
          "type": "string"
        },
        {
          "name": "_mag",
          "type": "string"
        },
        {
          "name": "_cen",
          "type": "string"
        }
      ],
      "name": "checkIfStarExist",
      "outputs": [
        {
          "name": "",
          "type": "bool"
        }
      ],
      "payable": false,
      "stateMutability": "view",
      "type": "function"
    },
    {
      "constant": false,
      "inputs": [
        {
          "name": "_tokenId",
          "type": "uint256"
        }
      ],
      "name": "mint",
      "outputs": [],
      "payable": false,
      "stateMutability": "nonpayable",
      "type": "function"
    },
    {
      "constant": true,
      "inputs": [
        {
          "name": "_tokenId",
          "type": "uint256"
        }
      ],
      "name": "tokenIdToStarInfo",
      "outputs": [
        {
          "name": "_name",
          "type": "string"
        },
        {
          "name": "_story",
          "type": "string"
        },
        {
          "name": "_ra",
          "type": "string"
        },
        {
          "name": "_dec",
          "type": "string"
        },
        {
          "name": "_mag",
          "type": "string"
        },
        {
          "name": "_cen",
          "type": "string"
        }
      ],
      "payable": false,
      "stateMutability": "view",
      "type": "function"
    }
  ],
  "bytecode": "0x6080604052620000416301ffc9a77c01000000000000000000000000000000000000000000000000000000000262000084640100000000026401000000009004565b6200007e6380ac58cd7c01000000000000000000000000000000000000000000000000000000000262000084640100000000026401000000009004565b62000142565b63ffffffff7c010000000000000000000000000000000000000000000000000000000002817bffffffffffffffffffffffffffffffffffffffffffffffffffffffff191614151515620000d657600080fd5b6001600080837bffffffffffffffffffffffffffffffffffffffffffffffffffffffff19167bffffffffffffffffffffffffffffffffffffffffffffffffffffffff1916815260200190815260200160002060006101000a81548160ff02191690831515021790555050565b612b2e80620001526000396000f3006080604052600436106100f1576000357c0100000000000000000000000000000000000000000000000000000000900463ffffffff16806301ffc9a7146100f65780630564b1301461015a578063081812fc1461019b578063095ea7b3146102085780631967fd981461025557806323b872dd14610517578063244bbc5c146105845780632f1c34ef14610755578063316a4361146107755780633cb7efb3146107ac57806342842e0e146108ff5780636352211e1461096c57806370a08231146109d9578063a0712d6814610a30578063a22cb46514610a5d578063b88d4fde14610aac578063e985e9c514610b5f575b600080fd5b34801561010257600080fd5b5061014060048036038101908080357bffffffffffffffffffffffffffffffffffffffffffffffffffffffff19169060200190929190505050610bda565b604051808215151515815260200191505060405180910390f35b34801561016657600080fd5b5061018560048036038101908080359060200190929190505050610c41565b6040518082815260200191505060405180910390f35b3480156101a757600080fd5b506101c660048036038101908080359060200190929190505050610c59565b604051808273ffffffffffffffffffffffffffffffffffffffff1673ffffffffffffffffffffffffffffffffffffffff16815260200191505060405180910390f35b34801561021457600080fd5b50610253600480360381019080803573ffffffffffffffffffffffffffffffffffffffff16906020019092919080359060200190929190505050610caa565b005b34801561026157600080fd5b5061028060048036038101908080359060200190929190505050610def565b6040518080602001806020018060200180602001806020018060200187810387528d818151815260200191508051906020019080838360005b838110156102d45780820151818401526020810190506102b9565b50505050905090810190601f1680156103015780820380516001836020036101000a031916815260200191505b5087810386528c818151815260200191508051906020019080838360005b8381101561033a57808201518184015260208101905061031f565b50505050905090810190601f1680156103675780820380516001836020036101000a031916815260200191505b5087810385528b818151815260200191508051906020019080838360005b838110156103a0578082015181840152602081019050610385565b50505050905090810190601f1680156103cd5780820380516001836020036101000a031916815260200191505b5087810384528a818151815260200191508051906020019080838360005b838110156104065780820151818401526020810190506103eb565b50505050905090810190601f1680156104335780820380516001836020036101000a031916815260200191505b50878103835289818151815260200191508051906020019080838360005b8381101561046c578082015181840152602081019050610451565b50505050905090810190601f1680156104995780820380516001836020036101000a031916815260200191505b50878103825288818151815260200191508051906020019080838360005b838110156104d25780820151818401526020810190506104b7565b50505050905090810190601f1680156104ff5780820380516001836020036101000a031916815260200191505b509c5050505050505050505050505060405180910390f35b34801561052357600080fd5b50610582600480360381019080803573ffffffffffffffffffffffffffffffffffffffff169060200190929190803573ffffffffffffffffffffffffffffffffffffffff16906020019092919080359060200190929190505050611282565b005b34801561059057600080fd5b50610753600480360381019080803590602001908201803590602001908080601f0160208091040260200160405190810160405280939291908181526020018383808284378201915050505050509192919290803590602001908201803590602001908080601f0160208091040260200160405190810160405280939291908181526020018383808284378201915050505050509192919290803590602001908201803590602001908080601f0160208091040260200160405190810160405280939291908181526020018383808284378201915050505050509192919290803590602001908201803590602001908080601f0160208091040260200160405190810160405280939291908181526020018383808284378201915050505050509192919290803590602001908201803590602001908080601f0160208091040260200160405190810160405280939291908181526020018383808284378201915050505050509192919290803590602001908201803590602001908080601f016020809104026020016040519081016040528093929190818152602001838380828437820191505050505050919291929080359060200190929190505050611351565b005b610773600480360381019080803590602001909291905050506117ac565b005b34801561078157600080fd5b506107aa6004803603810190808035906020019092919080359060200190929190505050611a4c565b005b3480156107b857600080fd5b506108e5600480360381019080803590602001908201803590602001908080601f0160208091040260200160405190810160405280939291908181526020018383808284378201915050505050509192919290803590602001908201803590602001908080601f0160208091040260200160405190810160405280939291908181526020018383808284378201915050505050509192919290803590602001908201803590602001908080601f0160208091040260200160405190810160405280939291908181526020018383808284378201915050505050509192919290803590602001908201803590602001908080601f0160208091040260200160405190810160405280939291908181526020018383808284378201915050505050509192919290505050611bda565b604051808215151515815260200191505060405180910390f35b34801561090b57600080fd5b5061096a600480360381019080803573ffffffffffffffffffffffffffffffffffffffff169060200190929190803573ffffffffffffffffffffffffffffffffffffffff16906020019092919080359060200190929190505050611d92565b005b34801561097857600080fd5b5061099760048036038101908080359060200190929190505050611db3565b604051808273ffffffffffffffffffffffffffffffffffffffff1673ffffffffffffffffffffffffffffffffffffffff16815260200191505060405180910390f35b3480156109e557600080fd5b50610a1a600480360381019080803573ffffffffffffffffffffffffffffffffffffffff169060200190929190505050611e31565b6040518082815260200191505060405180910390f35b348015610a3c57600080fd5b50610a5b60048036038101908080359060200190929190505050611eb5565b005b348015610a6957600080fd5b50610aaa600480360381019080803573ffffffffffffffffffffffffffffffffffffffff169060200190929190803515159060200190929190505050611ec2565b005b348015610ab857600080fd5b50610b5d600480360381019080803573ffffffffffffffffffffffffffffffffffffffff169060200190929190803573ffffffffffffffffffffffffffffffffffffffff16906020019092919080359060200190929190803590602001908201803590602001908080601f0160208091040260200160405190810160405280939291908181526020018383808284378201915050505050509192919290505050611ffe565b005b348015610b6b57600080fd5b50610bc0600480360381019080803573ffffffffffffffffffffffffffffffffffffffff169060200190929190803573ffffffffffffffffffffffffffffffffffffffff169060200190929190505050612026565b604051808215151515815260200191505060405180910390f35b6000806000837bffffffffffffffffffffffffffffffffffffffffffffffffffffffff19167bffffffffffffffffffffffffffffffffffffffffffffffffffffffff1916815260200190815260200160002060009054906101000a900460ff169050919050565b60066020528060005260406000206000915090505481565b6000610c64826120ba565b1515610c6f57600080fd5b6002600083815260200190815260200160002060009054906101000a900473ffffffffffffffffffffffffffffffffffffffff169050919050565b6000610cb582611db3565b90508073ffffffffffffffffffffffffffffffffffffffff168373ffffffffffffffffffffffffffffffffffffffff1614151515610cf257600080fd5b8073ffffffffffffffffffffffffffffffffffffffff163373ffffffffffffffffffffffffffffffffffffffff161480610d325750610d318133612026565b5b1515610d3d57600080fd5b826002600084815260200190815260200160002060006101000a81548173ffffffffffffffffffffffffffffffffffffffff021916908373ffffffffffffffffffffffffffffffffffffffff160217905550818373ffffffffffffffffffffffffffffffffffffffff168273ffffffffffffffffffffffffffffffffffffffff167f8c5be1e5ebec7d5bd14f71427d1e84f3dd0314c0f7b2291e5b200ac8c7c3b92560405160405180910390a4505050565b6060806060806060806000610e03886120ba565b1515610e9d576040517f08c379a000000000000000000000000000000000000000000000000000000000815260040180806020018281038252602b8152602001807f5374617220776974682074686520676976656e20746f6b656e496420646f657381526020017f206e6f742065786973742100000000000000000000000000000000000000000081525060400191505060405180910390fd5b600560008981526020019081526020016000209050806000018054600181600116156101000203166002900480601f016020809104026020016040519081016040528092919081815260200182805460018160011615610100020316600290048015610f4a5780601f10610f1f57610100808354040283529160200191610f4a565b820191906000526020600020905b815481529060010190602001808311610f2d57829003601f168201915b50505050509650806001018054600181600116156101000203166002900480601f016020809104026020016040519081016040528092919081815260200182805460018160011615610100020316600290048015610fe95780601f10610fbe57610100808354040283529160200191610fe9565b820191906000526020600020905b815481529060010190602001808311610fcc57829003601f168201915b50505050509550806002016000018054600181600116156101000203166002900480601f01602080910402602001604051908101604052809291908181526020018280546001816001161561010002031660029004801561108b5780601f106110605761010080835404028352916020019161108b565b820191906000526020600020905b81548152906001019060200180831161106e57829003601f168201915b50505050509450806002016001018054600181600116156101000203166002900480601f01602080910402602001604051908101604052809291908181526020018280546001816001161561010002031660029004801561112d5780601f106111025761010080835404028352916020019161112d565b820191906000526020600020905b81548152906001019060200180831161111057829003601f168201915b50505050509350806002016002018054600181600116156101000203166002900480601f0160208091040260200160405190810160405280929190818152602001828054600181600116156101000203166002900480156111cf5780601f106111a4576101008083540402835291602001916111cf565b820191906000526020600020905b8154815290600101906020018083116111b257829003601f168201915b50505050509250806002016003018054600181600116156101000203166002900480601f0160208091040260200160405190810160405280929190818152602001828054600181600116156101000203166002900480156112715780601f1061124657610100808354040283529160200191611271565b820191906000526020600020905b81548152906001019060200180831161125457829003601f168201915b505050505091505091939550919395565b61128c338261212c565b151561129757600080fd5b600073ffffffffffffffffffffffffffffffffffffffff168273ffffffffffffffffffffffffffffffffffffffff16141515156112d357600080fd5b6112dd83826121c1565b6112e783826122c4565b6112f182826123f3565b808273ffffffffffffffffffffffffffffffffffffffff168473ffffffffffffffffffffffffffffffffffffffff167fddf252ad1be2c89b69c2b068fc378daa952ba7f163c4a11628f55a4df523b3ef60405160405180910390a4505050565b6113596129e3565b6000611363612a0c565b61136c8a61254d565b1515156113e1576040517f08c379a000000000000000000000000000000000000000000000000000000000815260040180806020018281038252601a8152602001807f53746172206e616d652063616e6e6f7420626520656d7074792100000000000081525060200191505060405180910390fd5b6113ea8961254d565b15151561145f576040517f08c379a000000000000000000000000000000000000000000000000000000000815260040180806020018281038252601b8152602001807f537461722073746f72792063616e6e6f7420626520656d70747921000000000081525060200191505060405180910390fd5b6114688861254d565b151515611503576040517f08c379a00000000000000000000000000000000000000000000000000000000081526004018080602001828103825260258152602001807f5374617220726967687420617363656e73696f6e2063616e6e6f74206265206581526020017f6d7074792100000000000000000000000000000000000000000000000000000081525060400191505060405180910390fd5b61150c8761254d565b1515156115a7576040517f08c379a00000000000000000000000000000000000000000000000000000000081526004018080602001828103825260218152602001807f53746172206465636c696e6174696f6e2063616e6e6f7420626520656d70747981526020017f210000000000000000000000000000000000000000000000000000000000000081525060400191505060405180910390fd5b6080604051908101604052808981526020018881526020018781526020018681525092506115d483612561565b915060076000836000191660001916815260200190815260200160002060009054906101000a900460ff16151515611674576040517f08c379a000000000000000000000000000000000000000000000000000000000815260040180806020018281038252601f8152602001807f5374617220636f6f7264696e6174657320616c72656164792074616b656e210081525060200191505060405180910390fd5b6060604051908101604052808b81526020018a8152602001848152509050806005600086815260200190815260200160002060008201518160000190805190602001906116c2929190612a34565b5060208201518160010190805190602001906116df929190612a34565b506040820151816002016000820151816000019080519060200190611705929190612a34565b506020820151816001019080519060200190611722929190612a34565b50604082015181600201908051906020019061173f929190612a34565b50606082015181600301908051906020019061175c929190612a34565b505050905050600160076000846000191660001916815260200190815260200160002060006101000a81548160ff0219169083151502179055506117a033856126c6565b50505050505050505050565b6000806000600660008581526020019081526020016000205411151561183a576040517f08c379a00000000000000000000000000000000000000000000000000000000081526004018080602001828103825260158152602001807f53746172206973206e6f7420666f722073616c6521000000000000000000000081525060200191505060405180910390fd5b600660008481526020019081526020016000205491503073ffffffffffffffffffffffffffffffffffffffff16636352211e846040518263ffffffff167c010000000000000000000000000000000000000000000000000000000002815260040180828152602001915050602060405180830381600087803b1580156118bf57600080fd5b505af11580156118d3573d6000803e3d6000fd5b505050506040513d60208110156118e957600080fd5b8101908080519060200190929190505050905081341015151561199a576040517f08c379a00000000000000000000000000000000000000000000000000000000081526004018080602001828103825260238152602001807f496e73756666696369656e742076616c756520746f206275792074686520737481526020017f617221000000000000000000000000000000000000000000000000000000000081525060400191505060405180910390fd5b6119a481846122c4565b6119ae33846123f3565b8073ffffffffffffffffffffffffffffffffffffffff166108fc839081150290604051600060405180830381858888f193505050501580156119f4573d6000803e3d6000fd5b5081341115611a47573373ffffffffffffffffffffffffffffffffffffffff166108fc8334039081150290604051600060405180830381858888f19350505050158015611a45573d6000803e3d6000fd5b505b505050565b3373ffffffffffffffffffffffffffffffffffffffff163073ffffffffffffffffffffffffffffffffffffffff16636352211e846040518263ffffffff167c010000000000000000000000000000000000000000000000000000000002815260040180828152602001915050602060405180830381600087803b158015611ad257600080fd5b505af1158015611ae6573d6000803e3d6000fd5b505050506040513d6020811015611afc57600080fd5b810190808051906020019092919050505073ffffffffffffffffffffffffffffffffffffffff16141515611bbe576040517f08c379a000000000000000000000000000000000000000000000000000000000815260040180806020018281038252603a8152602001807f4f6e6c7920746865206f776e6572206f662074686520737461722063616e207081526020017f7574207468656972207374617220757020666f722073616c652100000000000081525060400191505060405180910390fd5b8060066000848152602001908152602001600020819055505050565b6000611be46129e3565b6000611bef8761254d565b151515611c8a576040517f08c379a00000000000000000000000000000000000000000000000000000000081526004018080602001828103825260258152602001807f5374617220726967687420617363656e73696f6e2063616e6e6f74206265206581526020017f6d7074792100000000000000000000000000000000000000000000000000000081525060400191505060405180910390fd5b611c938661254d565b151515611d2e576040517f08c379a00000000000000000000000000000000000000000000000000000000081526004018080602001828103825260218152602001807f53746172206465636c696e6174696f6e2063616e6e6f7420626520656d70747981526020017f210000000000000000000000000000000000000000000000000000000000000081525060400191505060405180910390fd5b608060405190810160405280888152602001878152602001868152602001858152509150611d5b82612561565b905060076000826000191660001916815260200190815260200160002060009054906101000a900460ff1692505050949350505050565b611dae8383836020604051908101604052806000815250611ffe565b505050565b6000806001600084815260200190815260200160002060009054906101000a900473ffffffffffffffffffffffffffffffffffffffff169050600073ffffffffffffffffffffffffffffffffffffffff168173ffffffffffffffffffffffffffffffffffffffff1614151515611e2857600080fd5b80915050919050565b60008073ffffffffffffffffffffffffffffffffffffffff168273ffffffffffffffffffffffffffffffffffffffff1614151515611e6e57600080fd5b600360008373ffffffffffffffffffffffffffffffffffffffff1673ffffffffffffffffffffffffffffffffffffffff168152602001908152602001600020549050919050565b611ebf33826126c6565b50565b3373ffffffffffffffffffffffffffffffffffffffff168273ffffffffffffffffffffffffffffffffffffffff1614151515611efd57600080fd5b80600460003373ffffffffffffffffffffffffffffffffffffffff1673ffffffffffffffffffffffffffffffffffffffff16815260200190815260200160002060008473ffffffffffffffffffffffffffffffffffffffff1673ffffffffffffffffffffffffffffffffffffffff16815260200190815260200160002060006101000a81548160ff0219169083151502179055508173ffffffffffffffffffffffffffffffffffffffff163373ffffffffffffffffffffffffffffffffffffffff167f17307eab39ab6107e8899845ad3d59bd9653f200f220920489ca2b5937696c3183604051808215151515815260200191505060405180910390a35050565b612009848484611282565b6120158484848461276c565b151561202057600080fd5b50505050565b6000600460008473ffffffffffffffffffffffffffffffffffffffff1673ffffffffffffffffffffffffffffffffffffffff16815260200190815260200160002060008373ffffffffffffffffffffffffffffffffffffffff1673ffffffffffffffffffffffffffffffffffffffff16815260200190815260200160002060009054906101000a900460ff16905092915050565b6000806001600084815260200190815260200160002060009054906101000a900473ffffffffffffffffffffffffffffffffffffffff169050600073ffffffffffffffffffffffffffffffffffffffff168173ffffffffffffffffffffffffffffffffffffffff161415915050919050565b60008061213883611db3565b90508073ffffffffffffffffffffffffffffffffffffffff168473ffffffffffffffffffffffffffffffffffffffff1614806121a757508373ffffffffffffffffffffffffffffffffffffffff1661218f84610c59565b73ffffffffffffffffffffffffffffffffffffffff16145b806121b857506121b78185612026565b5b91505092915050565b8173ffffffffffffffffffffffffffffffffffffffff166121e182611db3565b73ffffffffffffffffffffffffffffffffffffffff1614151561220357600080fd5b600073ffffffffffffffffffffffffffffffffffffffff166002600083815260200190815260200160002060009054906101000a900473ffffffffffffffffffffffffffffffffffffffff1673ffffffffffffffffffffffffffffffffffffffff161415156122c05760006002600083815260200190815260200160002060006101000a81548173ffffffffffffffffffffffffffffffffffffffff021916908373ffffffffffffffffffffffffffffffffffffffff1602179055505b5050565b8173ffffffffffffffffffffffffffffffffffffffff166122e482611db3565b73ffffffffffffffffffffffffffffffffffffffff1614151561230657600080fd5b6123596001600360008573ffffffffffffffffffffffffffffffffffffffff1673ffffffffffffffffffffffffffffffffffffffff1681526020019081526020016000205461298e90919063ffffffff16565b600360008473ffffffffffffffffffffffffffffffffffffffff1673ffffffffffffffffffffffffffffffffffffffff1681526020019081526020016000208190555060006001600083815260200190815260200160002060006101000a81548173ffffffffffffffffffffffffffffffffffffffff021916908373ffffffffffffffffffffffffffffffffffffffff1602179055505050565b600073ffffffffffffffffffffffffffffffffffffffff166001600083815260200190815260200160002060009054906101000a900473ffffffffffffffffffffffffffffffffffffffff1673ffffffffffffffffffffffffffffffffffffffff1614151561246157600080fd5b816001600083815260200190815260200160002060006101000a81548173ffffffffffffffffffffffffffffffffffffffff021916908373ffffffffffffffffffffffffffffffffffffffff1602179055506125066001600360008573ffffffffffffffffffffffffffffffffffffffff1673ffffffffffffffffffffffffffffffffffffffff168152602001908152602001600020546129af90919063ffffffff16565b600360008473ffffffffffffffffffffffffffffffffffffffff1673ffffffffffffffffffffffffffffffffffffffff168152602001908152602001600020819055505050565b600060608290506000815114915050919050565b600081600001518260200151604051602001808060200180602001838103835285818151815260200191508051906020019080838360005b838110156125b4578082015181840152602081019050612599565b50505050905090810190601f1680156125e15780820380516001836020036101000a031916815260200191505b50838103825284818151815260200191508051906020019080838360005b8381101561261a5780820151818401526020810190506125ff565b50505050905090810190601f1680156126475780820380516001836020036101000a031916815260200191505b509450505050506040516020818303038152906040526040518082805190602001908083835b602083101515612692578051825260208201915060208101905060208303925061266d565b6001836020036101000a03801982511681845116808217855250505050505090500191505060405180910390209050919050565b600073ffffffffffffffffffffffffffffffffffffffff168273ffffffffffffffffffffffffffffffffffffffff161415151561270257600080fd5b61270c82826123f3565b808273ffffffffffffffffffffffffffffffffffffffff16600073ffffffffffffffffffffffffffffffffffffffff167fddf252ad1be2c89b69c2b068fc378daa952ba7f163c4a11628f55a4df523b3ef60405160405180910390a45050565b60008061278e8573ffffffffffffffffffffffffffffffffffffffff166129d0565b151561279d5760019150612985565b8473ffffffffffffffffffffffffffffffffffffffff1663150b7a02338887876040518563ffffffff167c0100000000000000000000000000000000000000000000000000000000028152600401808573ffffffffffffffffffffffffffffffffffffffff1673ffffffffffffffffffffffffffffffffffffffff1681526020018473ffffffffffffffffffffffffffffffffffffffff1673ffffffffffffffffffffffffffffffffffffffff16815260200183815260200180602001828103825283818151815260200191508051906020019080838360005b83811015612892578082015181840152602081019050612877565b50505050905090810190601f1680156128bf5780820380516001836020036101000a031916815260200191505b5095505050505050602060405180830381600087803b1580156128e157600080fd5b505af11580156128f5573d6000803e3d6000fd5b505050506040513d602081101561290b57600080fd5b8101908080519060200190929190505050905063150b7a027c0100000000000000000000000000000000000000000000000000000000027bffffffffffffffffffffffffffffffffffffffffffffffffffffffff1916817bffffffffffffffffffffffffffffffffffffffffffffffffffffffff19161491505b50949350505050565b6000808383111515156129a057600080fd5b82840390508091505092915050565b60008082840190508381101515156129c657600080fd5b8091505092915050565b600080823b905060008111915050919050565b608060405190810160405280606081526020016060815260200160608152602001606081525090565b60c0604051908101604052806060815260200160608152602001612a2e612ab4565b81525090565b828054600181600116156101000203166002900490600052602060002090601f016020900481019282601f10612a7557805160ff1916838001178555612aa3565b82800160010185558215612aa3579182015b82811115612aa2578251825591602001919060010190612a87565b5b509050612ab09190612add565b5090565b608060405190810160405280606081526020016060815260200160608152602001606081525090565b612aff91905b80821115612afb576000816000905550600101612ae3565b5090565b905600a165627a7a72305820f87755d591c7f0cb1bd9a247921f1c84ff6bda472ff30223bccddbaa6e4b0a2d0029",
  "source": "pragma solidity ^0.4.23;\n\nimport \"openzeppelin-solidity/contracts/token/ERC721/ERC721.sol\";\n\n\n/**\n * @title Star Notary contract implementation.\n */\ncontract StarNotary is ERC721 {\n\n  // Star coordinates.\n  struct StarCoord {\n    // Right Ascension.\n    string ra;\n    // Declination.\n    string dec;\n    // Magnitude.\n    string mag;\n    // Constellation.\n    string cen;\n  }\n\n  // Star\n  struct Star {\n    // Name of the star.\n    string name;\n    // Story of the star.\n    string story;\n    // Star coordinates.\n    StarCoord coord;\n  }\n\n  // Mapping from token ID to star info.\n  mapping(uint256 => Star) public tokenIdToStarInfo;\n\n  // Mapping from token ID to star cost.\n  mapping(uint256 => uint256) public starsForSale;\n\n  // Mapping from hash of star coordinates to whether the star is taken.\n  mapping(bytes32 => bool) private starCoordToTaken;\n\n  /**\n   * @dev Creates the star for the specified token ID.\n   * @param _name string name of the star. (Required)\n   * @param _story string story of the star. (Required)\n   * @param _ra string Right Ascension. (Required)\n   * @param _dec string Declination. (Required)\n   * @param _mag string Magnitude. (Optional)\n   * @param _cen string Constellation. (Optional)\n   * @param _tokenId uint256 ID of the token of the star.\n   */\n  function createStar(string _name, string _story,\n                      string _ra, string _dec, string _mag, string _cen,\n                      uint256 _tokenId) public {\n    require(!_isEmpty(_name), \"Star name cannot be empty!\");\n    require(!_isEmpty(_story), \"Star story cannot be empty!\");\n    require(!_isEmpty(_ra), \"Star right ascension cannot be empty!\");\n    require(!_isEmpty(_dec), \"Star declination cannot be empty!\");\n\n    StarCoord memory newStarCoord = StarCoord(_ra, _dec, _mag, _cen);\n    bytes32 newStarCoordHash = _getStarCoordHash(newStarCoord);\n    require(!starCoordToTaken[newStarCoordHash],\n            \"Star coordinates already taken!\");\n    Star memory newStar = Star(_name, _story, newStarCoord);\n\n    tokenIdToStarInfo[_tokenId] = newStar;\n    starCoordToTaken[newStarCoordHash] = true;\n\n    _mint(msg.sender, _tokenId);\n  }\n\n  /**\n   * @dev Puts up the star with the given token ID for sale.\n   * @param _tokenId uint256 ID of the token of the star.\n   * @param _price uint256 Nonnegative price of the star.\n   */\n  function putStarUpForSale(uint256 _tokenId, uint256 _price) public {\n    require(this.ownerOf(_tokenId) == msg.sender,\n            \"Only the owner of the star can put their star up for sale!\");\n\n    starsForSale[_tokenId] = _price;\n  }\n\n  /**\n   * @dev Buys the star with the given token ID.\n   * @param _tokenId uint256 ID of the token of the star.\n   */\n  function buyStar(uint256 _tokenId) public payable {\n    require(starsForSale[_tokenId] > 0, \"Star is not for sale!\");\n    \n    uint256 starCost = starsForSale[_tokenId];\n    address starOwner = this.ownerOf(_tokenId);\n    require(msg.value >= starCost, \"Insufficient value to buy the star!\");\n\n    _removeTokenFrom(starOwner, _tokenId);\n    _addTokenTo(msg.sender, _tokenId);\n    \n    starOwner.transfer(starCost);\n\n    if (msg.value > starCost) {\n      msg.sender.transfer(msg.value - starCost);\n    }\n  }\n\n  /**\n   * @dev Checks if the star with the given coordinates already exists.\n   * @param _ra string Right Ascension. (Required)\n   * @param _dec string Declination. (Required)\n   * @param _mag string Magnitude. (Optional)\n   * @param _cen string Constellation. (Optional)\n   * @return bool if the star with the given coordinates already exists.\n   */\n  function checkIfStarExist(\n      string _ra, string _dec, string _mag, string _cen)\n  public view returns (bool) {\n    require(!_isEmpty(_ra), \"Star right ascension cannot be empty!\");\n    require(!_isEmpty(_dec), \"Star declination cannot be empty!\");\n\n    StarCoord memory starCoord = StarCoord(_ra, _dec, _mag, _cen);\n    bytes32 starCoordHash = _getStarCoordHash(starCoord);\n\n    return starCoordToTaken[starCoordHash];\n  }\n\n  /**\n   * @dev Mints the given token ID.\n   * @param _tokenId uint256 token ID.\n   */\n  function mint(uint256 _tokenId) public {\n    _mint(msg.sender, _tokenId);\n  }\n\n  /**\n   * @dev Gets the star info for the given token ID.\n   * @param _tokenId uint256 ID of the token of the star.\n   * @return Star info tuple.\n   */\n  function tokenIdToStarInfo(uint256 _tokenId) public view returns (\n      string _name, string _story,\n      string _ra, string _dec,\n      string _mag, string _cen) {\n    require(_exists(_tokenId), \"Star with the given tokenId does not exist!\");\n    Star storage star = tokenIdToStarInfo[_tokenId];\n    _name = star.name;\n    _story = star.story;\n    _ra = star.coord.ra;\n    _dec = star.coord.dec;\n    _mag = star.coord.mag;\n    _cen = star.coord.cen;\n  }\n\n  /**\n   * @dev Returns the hash for the given star coordinates.\n   * @param _starCoord StarCoord star coordinates.\n   * @return bytes32 hash of star coordinates.\n   */\n  function _getStarCoordHash(\n      StarCoord memory _starCoord) internal pure returns (bytes32) {\n    // We use only Right Ascension and Declination.\n    return keccak256(abi.encode(_starCoord.ra, _starCoord.dec));\n  }\n\n  /**\n   * @dev Returns true if the given string is empty.\n   * @param _str string to be checked.\n   * @return bool whether the given string is empty.\n   */\n  function _isEmpty(string _str) internal pure returns (bool) {\n    bytes memory strBytes = bytes(_str);\n    return strBytes.length == 0;\n  }\n}\n",
  "sourcePath": "/Users/petercerno/Documents/blockchain/Project_5/smart_contracts/contracts/StarNotary.sol",
  "compiler": {
    "name": "solc",
    "version": "0.4.24+commit.e67f0147.Emscripten.clang"
  },
  "schemaVersion": "2.0.1",
  "updatedAt": "2018-11-05T12:49:47.058Z"
}