{
  "contractName": "HealthcareCore",
  "abi": [
    {
      "constant": false,
      "inputs": [
        {
          "name": "sessionId",
          "type": "uint256"
        }
      ],
      "name": "takeBlood",
      "outputs": [],
      "payable": false,
      "stateMutability": "nonpayable",
      "type": "function",
      "signature": "0x080a3a45"
    },
    {
      "constant": true,
      "inputs": [
        {
          "name": "",
          "type": "address"
        }
      ],
      "name": "doctorState",
      "outputs": [
        {
          "name": "",
          "type": "uint8"
        }
      ],
      "payable": false,
      "stateMutability": "view",
      "type": "function",
      "signature": "0x1424614b"
    },
    {
      "constant": true,
      "inputs": [
        {
          "name": "",
          "type": "address"
        }
      ],
      "name": "patientState",
      "outputs": [
        {
          "name": "",
          "type": "uint8"
        }
      ],
      "payable": false,
      "stateMutability": "view",
      "type": "function",
      "signature": "0x16657da0"
    },
    {
      "constant": false,
      "inputs": [
        {
          "name": "account",
          "type": "address"
        }
      ],
      "name": "addLab",
      "outputs": [],
      "payable": false,
      "stateMutability": "nonpayable",
      "type": "function",
      "signature": "0x3aa78723"
    },
    {
      "constant": false,
      "inputs": [],
      "name": "renounceLab",
      "outputs": [],
      "payable": false,
      "stateMutability": "nonpayable",
      "type": "function",
      "signature": "0x46b6c42c"
    },
    {
      "constant": false,
      "inputs": [
        {
          "name": "account",
          "type": "address"
        }
      ],
      "name": "addDoctor",
      "outputs": [],
      "payable": false,
      "stateMutability": "nonpayable",
      "type": "function",
      "signature": "0x4780468f"
    },
    {
      "constant": true,
      "inputs": [],
      "name": "nextSessionId",
      "outputs": [
        {
          "name": "",
          "type": "uint256"
        }
      ],
      "payable": false,
      "stateMutability": "view",
      "type": "function",
      "signature": "0x49bbf7da"
    },
    {
      "constant": true,
      "inputs": [
        {
          "name": "_patientState",
          "type": "uint8"
        }
      ],
      "name": "patientStateToString",
      "outputs": [
        {
          "name": "_patientStateString",
          "type": "string"
        }
      ],
      "payable": false,
      "stateMutability": "pure",
      "type": "function",
      "signature": "0x554f1868"
    },
    {
      "constant": true,
      "inputs": [
        {
          "name": "account",
          "type": "address"
        }
      ],
      "name": "isLab",
      "outputs": [
        {
          "name": "",
          "type": "bool"
        }
      ],
      "payable": false,
      "stateMutability": "view",
      "type": "function",
      "signature": "0x5e390880"
    },
    {
      "constant": false,
      "inputs": [
        {
          "name": "account",
          "type": "address"
        }
      ],
      "name": "addPatient",
      "outputs": [],
      "payable": false,
      "stateMutability": "nonpayable",
      "type": "function",
      "signature": "0x6d263ceb"
    },
    {
      "constant": false,
      "inputs": [],
      "name": "renounceOwnership",
      "outputs": [],
      "payable": false,
      "stateMutability": "nonpayable",
      "type": "function",
      "signature": "0x715018a6"
    },
    {
      "constant": false,
      "inputs": [
        {
          "name": "sessionId",
          "type": "uint256"
        }
      ],
      "name": "sendBloodResults",
      "outputs": [],
      "payable": false,
      "stateMutability": "nonpayable",
      "type": "function",
      "signature": "0x730e30e7"
    },
    {
      "constant": false,
      "inputs": [
        {
          "name": "doctor",
          "type": "address"
        }
      ],
      "name": "visitDoctor",
      "outputs": [
        {
          "name": "sessionId",
          "type": "uint256"
        }
      ],
      "payable": false,
      "stateMutability": "nonpayable",
      "type": "function",
      "signature": "0x7b5675e8"
    },
    {
      "constant": false,
      "inputs": [],
      "name": "renouncePatient",
      "outputs": [],
      "payable": false,
      "stateMutability": "nonpayable",
      "type": "function",
      "signature": "0x81a07c36"
    },
    {
      "constant": true,
      "inputs": [
        {
          "name": "",
          "type": "uint256"
        }
      ],
      "name": "sessions",
      "outputs": [
        {
          "name": "sessionId",
          "type": "uint256"
        },
        {
          "name": "patient",
          "type": "address"
        },
        {
          "name": "doctor",
          "type": "address"
        },
        {
          "name": "lab",
          "type": "address"
        },
        {
          "name": "price",
          "type": "uint256"
        },
        {
          "name": "terminated",
          "type": "bool"
        }
      ],
      "payable": false,
      "stateMutability": "view",
      "type": "function",
      "signature": "0x83c4b7a3"
    },
    {
      "constant": true,
      "inputs": [],
      "name": "owner",
      "outputs": [
        {
          "name": "",
          "type": "address"
        }
      ],
      "payable": false,
      "stateMutability": "view",
      "type": "function",
      "signature": "0x8da5cb5b"
    },
    {
      "constant": true,
      "inputs": [],
      "name": "isOwner",
      "outputs": [
        {
          "name": "",
          "type": "bool"
        }
      ],
      "payable": false,
      "stateMutability": "view",
      "type": "function",
      "signature": "0x8f32d59b"
    },
    {
      "constant": true,
      "inputs": [
        {
          "name": "account",
          "type": "address"
        }
      ],
      "name": "isPatient",
      "outputs": [
        {
          "name": "",
          "type": "bool"
        }
      ],
      "payable": false,
      "stateMutability": "view",
      "type": "function",
      "signature": "0x8f9c79ed"
    },
    {
      "constant": true,
      "inputs": [
        {
          "name": "account",
          "type": "address"
        }
      ],
      "name": "isDoctor",
      "outputs": [
        {
          "name": "",
          "type": "bool"
        }
      ],
      "payable": false,
      "stateMutability": "view",
      "type": "function",
      "signature": "0x996440c6"
    },
    {
      "constant": true,
      "inputs": [
        {
          "name": "sessionId",
          "type": "uint256"
        }
      ],
      "name": "getSessionInfo",
      "outputs": [
        {
          "name": "_patient",
          "type": "address"
        },
        {
          "name": "_patientState",
          "type": "string"
        },
        {
          "name": "_doctor",
          "type": "address"
        },
        {
          "name": "_doctorState",
          "type": "string"
        },
        {
          "name": "_lab",
          "type": "address"
        },
        {
          "name": "_price",
          "type": "uint256"
        },
        {
          "name": "_terminated",
          "type": "bool"
        }
      ],
      "payable": false,
      "stateMutability": "view",
      "type": "function",
      "signature": "0x9e10acf0"
    },
    {
      "constant": false,
      "inputs": [],
      "name": "renounceDoctor",
      "outputs": [],
      "payable": false,
      "stateMutability": "nonpayable",
      "type": "function",
      "signature": "0xa11062d2"
    },
    {
      "constant": false,
      "inputs": [
        {
          "name": "sessionId",
          "type": "uint256"
        }
      ],
      "name": "leaveDoctor",
      "outputs": [],
      "payable": false,
      "stateMutability": "nonpayable",
      "type": "function",
      "signature": "0xae6228c2"
    },
    {
      "constant": false,
      "inputs": [
        {
          "name": "sessionId",
          "type": "uint256"
        },
        {
          "name": "lab",
          "type": "address"
        }
      ],
      "name": "sendBloodToLab",
      "outputs": [],
      "payable": false,
      "stateMutability": "nonpayable",
      "type": "function",
      "signature": "0xc690ef97"
    },
    {
      "constant": true,
      "inputs": [
        {
          "name": "_doctorState",
          "type": "uint8"
        }
      ],
      "name": "doctorStateToString",
      "outputs": [
        {
          "name": "_doctorStateString",
          "type": "string"
        }
      ],
      "payable": false,
      "stateMutability": "pure",
      "type": "function",
      "signature": "0xcc0a0216"
    },
    {
      "constant": false,
      "inputs": [
        {
          "name": "sessionId",
          "type": "uint256"
        }
      ],
      "name": "writePrescription",
      "outputs": [],
      "payable": false,
      "stateMutability": "nonpayable",
      "type": "function",
      "signature": "0xcd48b062"
    },
    {
      "constant": false,
      "inputs": [
        {
          "name": "sessionId",
          "type": "uint256"
        }
      ],
      "name": "payBill",
      "outputs": [],
      "payable": true,
      "stateMutability": "payable",
      "type": "function",
      "signature": "0xf0975190"
    },
    {
      "constant": false,
      "inputs": [
        {
          "name": "newOwner",
          "type": "address"
        }
      ],
      "name": "transferOwnership",
      "outputs": [],
      "payable": false,
      "stateMutability": "nonpayable",
      "type": "function",
      "signature": "0xf2fde38b"
    },
    {
      "anonymous": false,
      "inputs": [
        {
          "indexed": true,
          "name": "previousOwner",
          "type": "address"
        },
        {
          "indexed": true,
          "name": "newOwner",
          "type": "address"
        }
      ],
      "name": "OwnershipTransferred",
      "type": "event",
      "signature": "0x8be0079c531659141344cd1fd0a4f28419497f9722a3daafe3b4186f6b6457e0"
    },
    {
      "anonymous": false,
      "inputs": [
        {
          "indexed": false,
          "name": "sessionId",
          "type": "uint256"
        }
      ],
      "name": "DoctorVisited",
      "type": "event",
      "signature": "0x0932a3127d3a0e974a829a652eb025aa2c98ddc25f2cba0971d0fb73d36aec48"
    },
    {
      "anonymous": false,
      "inputs": [
        {
          "indexed": false,
          "name": "sessionId",
          "type": "uint256"
        }
      ],
      "name": "BloodTaken",
      "type": "event",
      "signature": "0xa83cb81cc64cddabef02d4490f753c3ad5a97d948fdc8bdb71a52895571dd6de"
    },
    {
      "anonymous": false,
      "inputs": [
        {
          "indexed": false,
          "name": "sessionId",
          "type": "uint256"
        }
      ],
      "name": "BloodSentToLab",
      "type": "event",
      "signature": "0x70ceeb2be3074c0eb670fe1e97e5266e781884c6c531be31a98b86275942f19e"
    },
    {
      "anonymous": false,
      "inputs": [
        {
          "indexed": false,
          "name": "sessionId",
          "type": "uint256"
        }
      ],
      "name": "BloodResultsReceived",
      "type": "event",
      "signature": "0xb119ec6b29c054884f75bff3db8c3fe581c0d872ccc9de5673e1150cf9b2867b"
    },
    {
      "anonymous": false,
      "inputs": [
        {
          "indexed": false,
          "name": "sessionId",
          "type": "uint256"
        }
      ],
      "name": "PrescriptionReceived",
      "type": "event",
      "signature": "0x00f4e2817afb7b5ce94d47670a6a1bcd591148198ab4937daadfbb431b955fd4"
    },
    {
      "anonymous": false,
      "inputs": [
        {
          "indexed": false,
          "name": "sessionId",
          "type": "uint256"
        }
      ],
      "name": "BillPaid",
      "type": "event",
      "signature": "0x27bbf6b6b99358bb53658438b2896fba25e0837435e7a55340ebb40701b81181"
    },
    {
      "anonymous": false,
      "inputs": [
        {
          "indexed": false,
          "name": "sessionId",
          "type": "uint256"
        }
      ],
      "name": "DoctorLeft",
      "type": "event",
      "signature": "0xdf3e9c656630e4f95d2e7f91bb69bdf434878ad5f5820f02a782cc6679573491"
    },
    {
      "anonymous": false,
      "inputs": [
        {
          "indexed": true,
          "name": "account",
          "type": "address"
        }
      ],
      "name": "LabAdded",
      "type": "event",
      "signature": "0x0cbced5fee1e31aa2167a435050f7dc7ed5de6d603cce2b5d547ae365ae3632e"
    },
    {
      "anonymous": false,
      "inputs": [
        {
          "indexed": true,
          "name": "account",
          "type": "address"
        }
      ],
      "name": "LabRemoved",
      "type": "event",
      "signature": "0xa04c1585bb4aa71bab84cfcc9a7d7accf0eeae3778b33aec8483b354b1ef9e21"
    },
    {
      "anonymous": false,
      "inputs": [
        {
          "indexed": true,
          "name": "account",
          "type": "address"
        }
      ],
      "name": "DoctorAdded",
      "type": "event",
      "signature": "0x69908b2e63170aa89ef89719bbe3b4c92cccc38653968ab25f4464eff7c28ac8"
    },
    {
      "anonymous": false,
      "inputs": [
        {
          "indexed": true,
          "name": "account",
          "type": "address"
        }
      ],
      "name": "DoctorRemoved",
      "type": "event",
      "signature": "0x493d7cf6a7c880406a55654d6727464ea088bd01d40498e1987a327e68961ab8"
    },
    {
      "anonymous": false,
      "inputs": [
        {
          "indexed": true,
          "name": "account",
          "type": "address"
        }
      ],
      "name": "PatientAdded",
      "type": "event",
      "signature": "0xa58cff07db0adda3ab7a40bd2f18ab57210bf38391a52ffd2e8eee6b8bdec71a"
    },
    {
      "anonymous": false,
      "inputs": [
        {
          "indexed": true,
          "name": "account",
          "type": "address"
        }
      ],
      "name": "PatientRemoved",
      "type": "event",
      "signature": "0x053a4badf166f01c4b02f6bcb71d2d67734470d0866282e291e73001aa25c769"
    }
  ],
  "bytecode": "0x60806040526200001e3362000116640100000000026401000000009004565b620000383362000180640100000000026401000000009004565b6200005233620001ea640100000000026401000000009004565b33600760006101000a81548173ffffffffffffffffffffffffffffffffffffffff021916908373ffffffffffffffffffffffffffffffffffffffff160217905550600760009054906101000a900473ffffffffffffffffffffffffffffffffffffffff1673ffffffffffffffffffffffffffffffffffffffff16600073ffffffffffffffffffffffffffffffffffffffff167f8be0079c531659141344cd1fd0a4f28419497f9722a3daafe3b4186f6b6457e060405160405180910390a3620003ac565b6200013a81600062000254640100000000026200409f179091906401000000009004565b8073ffffffffffffffffffffffffffffffffffffffff167fa58cff07db0adda3ab7a40bd2f18ab57210bf38391a52ffd2e8eee6b8bdec71a60405160405180910390a250565b620001a481600162000254640100000000026200409f179091906401000000009004565b8073ffffffffffffffffffffffffffffffffffffffff167f69908b2e63170aa89ef89719bbe3b4c92cccc38653968ab25f4464eff7c28ac860405160405180910390a250565b6200020e81600262000254640100000000026200409f179091906401000000009004565b8073ffffffffffffffffffffffffffffffffffffffff167f0cbced5fee1e31aa2167a435050f7dc7ed5de6d603cce2b5d547ae365ae3632e60405160405180910390a250565b600073ffffffffffffffffffffffffffffffffffffffff168173ffffffffffffffffffffffffffffffffffffffff16141515156200029157600080fd5b620002ac828262000317640100000000026401000000009004565b151515620002b957600080fd5b60018260000160008373ffffffffffffffffffffffffffffffffffffffff1673ffffffffffffffffffffffffffffffffffffffff16815260200190815260200160002060006101000a81548160ff0219169083151502179055505050565b60008073ffffffffffffffffffffffffffffffffffffffff168273ffffffffffffffffffffffffffffffffffffffff16141515156200035557600080fd5b8260000160008373ffffffffffffffffffffffffffffffffffffffff1673ffffffffffffffffffffffffffffffffffffffff16815260200190815260200160002060009054906101000a900460ff16905092915050565b61422a80620003bc6000396000f3fe60806040526004361061015f576000357c0100000000000000000000000000000000000000000000000000000000900463ffffffff168063080a3a45146101645780631424614b1461019f57806316657da0146102125780633aa787231461028557806346b6c42c146102d65780634780468f146102ed57806349bbf7da1461033e578063554f1868146103695780635e390880146104205780636d263ceb14610489578063715018a6146104da578063730e30e7146104f15780637b5675e81461052c57806381a07c361461059157806383c4b7a3146105a85780638da5cb5b146106a25780638f32d59b146106f95780638f9c79ed14610728578063996440c6146107915780639e10acf0146107fa578063a11062d2146109c5578063ae6228c2146109dc578063c690ef9714610a17578063cc0a021614610a72578063cd48b06214610b29578063f097519014610b64578063f2fde38b14610b92575b600080fd5b34801561017057600080fd5b5061019d6004803603602081101561018757600080fd5b8101908080359060200190929190505050610be3565b005b3480156101ab57600080fd5b506101ee600480360360208110156101c257600080fd5b81019080803573ffffffffffffffffffffffffffffffffffffffff16906020019092919050505061112b565b604051808260068111156101fe57fe5b60ff16815260200191505060405180910390f35b34801561021e57600080fd5b506102616004803603602081101561023557600080fd5b81019080803573ffffffffffffffffffffffffffffffffffffffff16906020019092919050505061114b565b6040518082600481111561027157fe5b60ff16815260200191505060405180910390f35b34801561029157600080fd5b506102d4600480360360208110156102a857600080fd5b81019080803573ffffffffffffffffffffffffffffffffffffffff16906020019092919050505061116b565b005b3480156102e257600080fd5b506102eb61118b565b005b3480156102f957600080fd5b5061033c6004803603602081101561031057600080fd5b81019080803573ffffffffffffffffffffffffffffffffffffffff169060200190929190505050611196565b005b34801561034a57600080fd5b506103536111b6565b6040518082815260200191505060405180910390f35b34801561037557600080fd5b506103a56004803603602081101561038c57600080fd5b81019080803560ff1690602001909291905050506111bc565b6040518080602001828103825283818151815260200191508051906020019080838360005b838110156103e55780820151818401526020810190506103ca565b50505050905090810190601f1680156104125780820380516001836020036101000a031916815260200191505b509250505060405180910390f35b34801561042c57600080fd5b5061046f6004803603602081101561044357600080fd5b81019080803573ffffffffffffffffffffffffffffffffffffffff169060200190929190505050611397565b604051808215151515815260200191505060405180910390f35b34801561049557600080fd5b506104d8600480360360208110156104ac57600080fd5b81019080803573ffffffffffffffffffffffffffffffffffffffff1690602001909291905050506113b4565b005b3480156104e657600080fd5b506104ef6113d4565b005b3480156104fd57600080fd5b5061052a6004803603602081101561051457600080fd5b81019080803590602001909291905050506114a8565b005b34801561053857600080fd5b5061057b6004803603602081101561054f57600080fd5b81019080803573ffffffffffffffffffffffffffffffffffffffff16906020019092919050505061196a565b6040518082815260200191505060405180910390f35b34801561059d57600080fd5b506105a6611e6e565b005b3480156105b457600080fd5b506105e1600480360360208110156105cb57600080fd5b8101908080359060200190929190505050611e79565b604051808781526020018673ffffffffffffffffffffffffffffffffffffffff1673ffffffffffffffffffffffffffffffffffffffff1681526020018573ffffffffffffffffffffffffffffffffffffffff1673ffffffffffffffffffffffffffffffffffffffff1681526020018473ffffffffffffffffffffffffffffffffffffffff1673ffffffffffffffffffffffffffffffffffffffff16815260200183815260200182151515158152602001965050505050505060405180910390f35b3480156106ae57600080fd5b506106b7611f22565b604051808273ffffffffffffffffffffffffffffffffffffffff1673ffffffffffffffffffffffffffffffffffffffff16815260200191505060405180910390f35b34801561070557600080fd5b5061070e611f4c565b604051808215151515815260200191505060405180910390f35b34801561073457600080fd5b506107776004803603602081101561074b57600080fd5b81019080803573ffffffffffffffffffffffffffffffffffffffff169060200190929190505050611fa4565b604051808215151515815260200191505060405180910390f35b34801561079d57600080fd5b506107e0600480360360208110156107b457600080fd5b81019080803573ffffffffffffffffffffffffffffffffffffffff169060200190929190505050611fc1565b604051808215151515815260200191505060405180910390f35b34801561080657600080fd5b506108336004803603602081101561081d57600080fd5b8101908080359060200190929190505050611fde565b604051808873ffffffffffffffffffffffffffffffffffffffff1673ffffffffffffffffffffffffffffffffffffffff168152602001806020018773ffffffffffffffffffffffffffffffffffffffff1673ffffffffffffffffffffffffffffffffffffffff168152602001806020018673ffffffffffffffffffffffffffffffffffffffff1673ffffffffffffffffffffffffffffffffffffffff16815260200185815260200184151515158152602001838103835289818151815260200191508051906020019080838360005b8381101561091d578082015181840152602081019050610902565b50505050905090810190601f16801561094a5780820380516001836020036101000a031916815260200191505b50838103825287818151815260200191508051906020019080838360005b83811015610983578082015181840152602081019050610968565b50505050905090810190601f1680156109b05780820380516001836020036101000a031916815260200191505b50995050505050505050505060405180910390f35b3480156109d157600080fd5b506109da6122a9565b005b3480156109e857600080fd5b50610a15600480360360208110156109ff57600080fd5b81019080803590602001909291905050506122b4565b005b348015610a2357600080fd5b50610a7060048036036040811015610a3a57600080fd5b8101908080359060200190929190803573ffffffffffffffffffffffffffffffffffffffff169060200190929190505050612817565b005b348015610a7e57600080fd5b50610aae60048036036020811015610a9557600080fd5b81019080803560ff169060200190929190505050612e65565b6040518080602001828103825283818151815260200191508051906020019080838360005b83811015610aee578082015181840152602081019050610ad3565b50505050905090810190601f168015610b1b5780820380516001836020036101000a031916815260200191505b509250505060405180910390f35b348015610b3557600080fd5b50610b6260048036036020811015610b4c57600080fd5b81019080803590602001909291905050506130fa565b005b610b9060048036036020811015610b7a57600080fd5b8101908080359060200190929190505050613666565b005b348015610b9e57600080fd5b50610be160048036036020811015610bb557600080fd5b81019080803573ffffffffffffffffffffffffffffffffffffffff169060200190929190505050613cd4565b005b610bec33611fc1565b1515610bf757600080fd5b8060008110158015610c0a575060055481105b1515610c7e576040517f08c379a00000000000000000000000000000000000000000000000000000000081526004018080602001828103825260128152602001807f494e56414c49445f53455353494f4e5f4944000000000000000000000000000081525060200191505060405180910390fd5b806006600083815260200190815260200160002060000154141515610d0b576040517f08c379a000000000000000000000000000000000000000000000000000000000815260040180806020018281038252600f8152602001807f494e56414c49445f53455353494f4e000000000000000000000000000000000081525060200191505060405180910390fd5b60006006600084815260200190815260200160002090503373ffffffffffffffffffffffffffffffffffffffff168160020160009054906101000a900473ffffffffffffffffffffffffffffffffffffffff1673ffffffffffffffffffffffffffffffffffffffff16141515610de9576040517f08c379a00000000000000000000000000000000000000000000000000000000081526004018080602001828103825260168152602001807f494e56414c49445f53455353494f4e5f444f43544f520000000000000000000081525060200191505060405180910390fd5b60016004811115610df657fe5b600360008360010160009054906101000a900473ffffffffffffffffffffffffffffffffffffffff1673ffffffffffffffffffffffffffffffffffffffff1673ffffffffffffffffffffffffffffffffffffffff16815260200190815260200160002060009054906101000a900460ff166004811115610e7257fe5b141515610ee7576040517f08c379a00000000000000000000000000000000000000000000000000000000081526004018080602001828103825260158152602001807f50415449454e545f4e4f545f41545f444f43544f52000000000000000000000081525060200191505060405180910390fd5b60016006811115610ef457fe5b600460008360020160009054906101000a900473ffffffffffffffffffffffffffffffffffffffff1673ffffffffffffffffffffffffffffffffffffffff1673ffffffffffffffffffffffffffffffffffffffff16815260200190815260200160002060009054906101000a900460ff166006811115610f7057fe5b141515610fe5576040517f08c379a000000000000000000000000000000000000000000000000000000000815260040180806020018281038252601b8152602001807f444f43544f525f4e4f545f52454345495645445f50415449454e54000000000081525060200191505060405180910390fd5b6002600360008360010160009054906101000a900473ffffffffffffffffffffffffffffffffffffffff1673ffffffffffffffffffffffffffffffffffffffff1673ffffffffffffffffffffffffffffffffffffffff16815260200190815260200160002060006101000a81548160ff0219169083600481111561106557fe5b02179055506002600460008360020160009054906101000a900473ffffffffffffffffffffffffffffffffffffffff1673ffffffffffffffffffffffffffffffffffffffff1673ffffffffffffffffffffffffffffffffffffffff16815260200190815260200160002060006101000a81548160ff021916908360068111156110ea57fe5b02179055507fa83cb81cc64cddabef02d4490f753c3ad5a97d948fdc8bdb71a52895571dd6de836040518082815260200191505060405180910390a1505050565b60046020528060005260406000206000915054906101000a900460ff1681565b60036020528060005260406000206000915054906101000a900460ff1681565b61117433611397565b151561117f57600080fd5b61118881613cf3565b50565b61119433613d4d565b565b61119f33611fc1565b15156111aa57600080fd5b6111b381613da7565b50565b60055481565b6060600060048111156111cb57fe5b8260048111156111d757fe5b141561121a576040805190810160405280600481526020017f49646c65000000000000000000000000000000000000000000000000000000008152509050611392565b6001600481111561122757fe5b82600481111561123357fe5b1415611276576040805190810160405280600881526020017f4174446f63746f720000000000000000000000000000000000000000000000008152509050611391565b6002600481111561128357fe5b82600481111561128f57fe5b14156112d2576040805190810160405280600a81526020017f426c6f6f6454616b656e000000000000000000000000000000000000000000008152509050611390565b600360048111156112df57fe5b8260048111156112eb57fe5b141561132e576040805190810160405280601481526020017f507265736372697074696f6e5265636569766564000000000000000000000000815250905061138f565b60048081111561133a57fe5b82600481111561134657fe5b1415611389576040805190810160405280600881526020017f42696c6c50616964000000000000000000000000000000000000000000000000815250905061138e565b600080fd5b5b5b5b5b919050565b60006113ad826002613e0190919063ffffffff16565b9050919050565b6113bd33611fa4565b15156113c857600080fd5b6113d181613e95565b50565b6113dc611f4c565b15156113e757600080fd5b600073ffffffffffffffffffffffffffffffffffffffff16600760009054906101000a900473ffffffffffffffffffffffffffffffffffffffff1673ffffffffffffffffffffffffffffffffffffffff167f8be0079c531659141344cd1fd0a4f28419497f9722a3daafe3b4186f6b6457e060405160405180910390a36000600760006101000a81548173ffffffffffffffffffffffffffffffffffffffff021916908373ffffffffffffffffffffffffffffffffffffffff160217905550565b6114b133611397565b15156114bc57600080fd5b80600081101580156114cf575060055481105b1515611543576040517f08c379a00000000000000000000000000000000000000000000000000000000081526004018080602001828103825260128152602001807f494e56414c49445f53455353494f4e5f4944000000000000000000000000000081525060200191505060405180910390fd5b8060066000838152602001908152602001600020600001541415156115d0576040517f08c379a000000000000000000000000000000000000000000000000000000000815260040180806020018281038252600f8152602001807f494e56414c49445f53455353494f4e000000000000000000000000000000000081525060200191505060405180910390fd5b60006006600084815260200190815260200160002090503373ffffffffffffffffffffffffffffffffffffffff168160030160009054906101000a900473ffffffffffffffffffffffffffffffffffffffff1673ffffffffffffffffffffffffffffffffffffffff161415156116ae576040517f08c379a00000000000000000000000000000000000000000000000000000000081526004018080602001828103825260138152602001807f494e56414c49445f53455353494f4e5f4c41420000000000000000000000000081525060200191505060405180910390fd5b600260048111156116bb57fe5b600360008360010160009054906101000a900473ffffffffffffffffffffffffffffffffffffffff1673ffffffffffffffffffffffffffffffffffffffff1673ffffffffffffffffffffffffffffffffffffffff16815260200190815260200160002060009054906101000a900460ff16600481111561173757fe5b1415156117ac576040517f08c379a00000000000000000000000000000000000000000000000000000000081526004018080602001828103825260178152602001807f50415449454e545f4e4f545f54414b454e5f424c4f4f4400000000000000000081525060200191505060405180910390fd5b600360068111156117b957fe5b600460008360020160009054906101000a900473ffffffffffffffffffffffffffffffffffffffff1673ffffffffffffffffffffffffffffffffffffffff1673ffffffffffffffffffffffffffffffffffffffff16815260200190815260200160002060009054906101000a900460ff16600681111561183557fe5b1415156118aa576040517f08c379a00000000000000000000000000000000000000000000000000000000081526004018080602001828103825260158152602001807f444f43544f525f4e4f545f53454e545f424c4f4f44000000000000000000000081525060200191505060405180910390fd5b60048060008360020160009054906101000a900473ffffffffffffffffffffffffffffffffffffffff1673ffffffffffffffffffffffffffffffffffffffff1673ffffffffffffffffffffffffffffffffffffffff16815260200190815260200160002060006101000a81548160ff0219169083600681111561192957fe5b02179055507fb119ec6b29c054884f75bff3db8c3fe581c0d872ccc9de5673e1150cf9b2867b836040518082815260200191505060405180910390a1505050565b600061197533611fa4565b151561198057600080fd5b8161198a81611fc1565b15156119fe576040517f08c379a00000000000000000000000000000000000000000000000000000000081526004018080602001828103825260198152602001807f444f45535f4e4f545f484156455f444f43544f525f524f4c450000000000000081525060200191505060405180910390fd5b600033905060006004811115611a1057fe5b600360008373ffffffffffffffffffffffffffffffffffffffff1673ffffffffffffffffffffffffffffffffffffffff16815260200190815260200160002060009054906101000a900460ff166004811115611a6857fe5b141515611add576040517f08c379a00000000000000000000000000000000000000000000000000000000081526004018080602001828103825260108152602001807f50415449454e545f4e4f545f49444c450000000000000000000000000000000081525060200191505060405180910390fd5b60006006811115611aea57fe5b600460008673ffffffffffffffffffffffffffffffffffffffff1673ffffffffffffffffffffffffffffffffffffffff16815260200190815260200160002060009054906101000a900460ff166006811115611b4257fe5b141515611bb7576040517f08c379a000000000000000000000000000000000000000000000000000000000815260040180806020018281038252600f8152602001807f444f43544f525f4e4f545f49444c45000000000000000000000000000000000081525060200191505060405180910390fd5b6001600360008373ffffffffffffffffffffffffffffffffffffffff1673ffffffffffffffffffffffffffffffffffffffff16815260200190815260200160002060006101000a81548160ff02191690836004811115611c1357fe5b02179055506001600460008673ffffffffffffffffffffffffffffffffffffffff1673ffffffffffffffffffffffffffffffffffffffff16815260200190815260200160002060006101000a81548160ff02191690836006811115611c7457fe5b0217905550600084905060c06040519081016040528060055481526020018373ffffffffffffffffffffffffffffffffffffffff1681526020018273ffffffffffffffffffffffffffffffffffffffff168152602001600073ffffffffffffffffffffffffffffffffffffffff16815260200166038d7ea4c680008152602001600015158152506006600060055481526020019081526020016000206000820151816000015560208201518160010160006101000a81548173ffffffffffffffffffffffffffffffffffffffff021916908373ffffffffffffffffffffffffffffffffffffffff16021790555060408201518160020160006101000a81548173ffffffffffffffffffffffffffffffffffffffff021916908373ffffffffffffffffffffffffffffffffffffffff16021790555060608201518160030160006101000a81548173ffffffffffffffffffffffffffffffffffffffff021916908373ffffffffffffffffffffffffffffffffffffffff1602179055506080820151816004015560a08201518160050160006101000a81548160ff0219169083151502179055509050507f0932a3127d3a0e974a829a652eb025aa2c98ddc25f2cba0971d0fb73d36aec486005546040518082815260200191505060405180910390a16005549350600160055401600581905550505050919050565b611e7733613eef565b565b60066020528060005260406000206000915090508060000154908060010160009054906101000a900473ffffffffffffffffffffffffffffffffffffffff16908060020160009054906101000a900473ffffffffffffffffffffffffffffffffffffffff16908060030160009054906101000a900473ffffffffffffffffffffffffffffffffffffffff16908060040154908060050160009054906101000a900460ff16905086565b6000600760009054906101000a900473ffffffffffffffffffffffffffffffffffffffff16905090565b6000600760009054906101000a900473ffffffffffffffffffffffffffffffffffffffff1673ffffffffffffffffffffffffffffffffffffffff163373ffffffffffffffffffffffffffffffffffffffff1614905090565b6000611fba826000613e0190919063ffffffff16565b9050919050565b6000611fd7826001613e0190919063ffffffff16565b9050919050565b600060606000606060008060008760008110158015611ffe575060055481105b1515612072576040517f08c379a00000000000000000000000000000000000000000000000000000000081526004018080602001828103825260128152602001807f494e56414c49445f53455353494f4e5f4944000000000000000000000000000081525060200191505060405180910390fd5b8060066000838152602001908152602001600020600001541415156120ff576040517f08c379a000000000000000000000000000000000000000000000000000000000815260040180806020018281038252600f8152602001807f494e56414c49445f53455353494f4e000000000000000000000000000000000081525060200191505060405180910390fd5b6000600660008b815260200190815260200160002090508060010160009054906101000a900473ffffffffffffffffffffffffffffffffffffffff1698506121b6600360008360010160009054906101000a900473ffffffffffffffffffffffffffffffffffffffff1673ffffffffffffffffffffffffffffffffffffffff1673ffffffffffffffffffffffffffffffffffffffff16815260200190815260200160002060009054906101000a900460ff166111bc565b97508060020160009054906101000a900473ffffffffffffffffffffffffffffffffffffffff169650612258600460008360020160009054906101000a900473ffffffffffffffffffffffffffffffffffffffff1673ffffffffffffffffffffffffffffffffffffffff1673ffffffffffffffffffffffffffffffffffffffff16815260200190815260200160002060009054906101000a900460ff16612e65565b95508060030160009054906101000a900473ffffffffffffffffffffffffffffffffffffffff169450806004015493508060050160009054906101000a900460ff1692505050919395979092949650565b6122b233613f49565b565b6122bd33611fa4565b15156122c857600080fd5b80600081101580156122db575060055481105b151561234f576040517f08c379a00000000000000000000000000000000000000000000000000000000081526004018080602001828103825260128152602001807f494e56414c49445f53455353494f4e5f4944000000000000000000000000000081525060200191505060405180910390fd5b8060066000838152602001908152602001600020600001541415156123dc576040517f08c379a000000000000000000000000000000000000000000000000000000000815260040180806020018281038252600f8152602001807f494e56414c49445f53455353494f4e000000000000000000000000000000000081525060200191505060405180910390fd5b60006006600084815260200190815260200160002090503373ffffffffffffffffffffffffffffffffffffffff168160010160009054906101000a900473ffffffffffffffffffffffffffffffffffffffff1673ffffffffffffffffffffffffffffffffffffffff161415156124ba576040517f08c379a00000000000000000000000000000000000000000000000000000000081526004018080602001828103825260178152602001807f494e56414c49445f53455353494f4e5f50415449454e5400000000000000000081525060200191505060405180910390fd5b6004808111156124c657fe5b600360008360010160009054906101000a900473ffffffffffffffffffffffffffffffffffffffff1673ffffffffffffffffffffffffffffffffffffffff1673ffffffffffffffffffffffffffffffffffffffff16815260200190815260200160002060009054906101000a900460ff16600481111561254257fe5b1415156125b7576040517f08c379a00000000000000000000000000000000000000000000000000000000081526004018080602001828103825260158152602001807f50415449454e545f4e4f545f504149445f42494c4c000000000000000000000081525060200191505060405180910390fd5b6006808111156125c357fe5b600460008360020160009054906101000a900473ffffffffffffffffffffffffffffffffffffffff1673ffffffffffffffffffffffffffffffffffffffff1673ffffffffffffffffffffffffffffffffffffffff16815260200190815260200160002060009054906101000a900460ff16600681111561263f57fe5b1415156126b4576040517f08c379a00000000000000000000000000000000000000000000000000000000081526004018080602001828103825260198152602001807f444f43544f525f4e4f545f52454345495645445f4d4f4e45590000000000000081525060200191505060405180910390fd5b6000600360008360010160009054906101000a900473ffffffffffffffffffffffffffffffffffffffff1673ffffffffffffffffffffffffffffffffffffffff1673ffffffffffffffffffffffffffffffffffffffff16815260200190815260200160002060006101000a81548160ff0219169083600481111561273457fe5b02179055506000600460008360020160009054906101000a900473ffffffffffffffffffffffffffffffffffffffff1673ffffffffffffffffffffffffffffffffffffffff1673ffffffffffffffffffffffffffffffffffffffff16815260200190815260200160002060006101000a81548160ff021916908360068111156127b957fe5b021790555060018160050160006101000a81548160ff0219169083151502179055507fdf3e9c656630e4f95d2e7f91bb69bdf434878ad5f5820f02a782cc6679573491836040518082815260200191505060405180910390a1505050565b61282033611fc1565b151561282b57600080fd5b816000811015801561283e575060055481105b15156128b2576040517f08c379a00000000000000000000000000000000000000000000000000000000081526004018080602001828103825260128152602001807f494e56414c49445f53455353494f4e5f4944000000000000000000000000000081525060200191505060405180910390fd5b80600660008381526020019081526020016000206000015414151561293f576040517f08c379a000000000000000000000000000000000000000000000000000000000815260040180806020018281038252600f8152602001807f494e56414c49445f53455353494f4e000000000000000000000000000000000081525060200191505060405180910390fd5b8161294981611397565b15156129bd576040517f08c379a00000000000000000000000000000000000000000000000000000000081526004018080602001828103825260168152602001807f444f45535f4e4f545f484156455f4c41425f524f4c450000000000000000000081525060200191505060405180910390fd5b60006006600086815260200190815260200160002090503373ffffffffffffffffffffffffffffffffffffffff168160020160009054906101000a900473ffffffffffffffffffffffffffffffffffffffff1673ffffffffffffffffffffffffffffffffffffffff16141515612a9b576040517f08c379a00000000000000000000000000000000000000000000000000000000081526004018080602001828103825260168152602001807f494e56414c49445f53455353494f4e5f444f43544f520000000000000000000081525060200191505060405180910390fd5b600073ffffffffffffffffffffffffffffffffffffffff168160030160009054906101000a900473ffffffffffffffffffffffffffffffffffffffff1673ffffffffffffffffffffffffffffffffffffffff16141515612b63576040517f08c379a00000000000000000000000000000000000000000000000000000000081526004018080602001828103825260138152602001807f494e56414c49445f53455353494f4e5f4c41420000000000000000000000000081525060200191505060405180910390fd5b60026004811115612b7057fe5b600360008360010160009054906101000a900473ffffffffffffffffffffffffffffffffffffffff1673ffffffffffffffffffffffffffffffffffffffff1673ffffffffffffffffffffffffffffffffffffffff16815260200190815260200160002060009054906101000a900460ff166004811115612bec57fe5b141515612c61576040517f08c379a00000000000000000000000000000000000000000000000000000000081526004018080602001828103825260178152602001807f50415449454e545f4e4f545f54414b454e5f424c4f4f4400000000000000000081525060200191505060405180910390fd5b60026006811115612c6e57fe5b600460008360020160009054906101000a900473ffffffffffffffffffffffffffffffffffffffff1673ffffffffffffffffffffffffffffffffffffffff1673ffffffffffffffffffffffffffffffffffffffff16815260200190815260200160002060009054906101000a900460ff166006811115612cea57fe5b141515612d5f576040517f08c379a00000000000000000000000000000000000000000000000000000000081526004018080602001828103825260198152602001807f444f43544f525f4e4f545f52454345495645445f424c4f4f440000000000000081525060200191505060405180910390fd5b6003600460008360020160009054906101000a900473ffffffffffffffffffffffffffffffffffffffff1673ffffffffffffffffffffffffffffffffffffffff1673ffffffffffffffffffffffffffffffffffffffff16815260200190815260200160002060006101000a81548160ff02191690836006811115612ddf57fe5b0217905550838160030160006101000a81548173ffffffffffffffffffffffffffffffffffffffff021916908373ffffffffffffffffffffffffffffffffffffffff1602179055507f70ceeb2be3074c0eb670fe1e97e5266e781884c6c531be31a98b86275942f19e856040518082815260200191505060405180910390a15050505050565b606060006006811115612e7457fe5b826006811115612e8057fe5b1415612ec3576040805190810160405280600481526020017f49646c650000000000000000000000000000000000000000000000000000000081525090506130f5565b60016006811115612ed057fe5b826006811115612edc57fe5b1415612f1f576040805190810160405280600f81526020017f50617469656e745265636569766564000000000000000000000000000000000081525090506130f4565b60026006811115612f2c57fe5b826006811115612f3857fe5b1415612f7b576040805190810160405280600d81526020017f426c6f6f6452656365697665640000000000000000000000000000000000000081525090506130f3565b60036006811115612f8857fe5b826006811115612f9457fe5b1415612fd7576040805190810160405280600e81526020017f426c6f6f6453656e74546f4c616200000000000000000000000000000000000081525090506130f2565b60046006811115612fe457fe5b826006811115612ff057fe5b1415613033576040805190810160405280601481526020017f426c6f6f64526573756c7473526563656976656400000000000000000000000081525090506130f1565b6005600681111561304057fe5b82600681111561304c57fe5b141561308f576040805190810160405280601381526020017f507265736372697074696f6e5772697474656e0000000000000000000000000081525090506130f0565b60068081111561309b57fe5b8260068111156130a757fe5b14156130ea576040805190810160405280600d81526020017f4d6f6e657952656365697665640000000000000000000000000000000000000081525090506130ef565b600080fd5b5b5b5b5b5b5b919050565b61310333611fc1565b151561310e57600080fd5b8060008110158015613121575060055481105b1515613195576040517f08c379a00000000000000000000000000000000000000000000000000000000081526004018080602001828103825260128152602001807f494e56414c49445f53455353494f4e5f4944000000000000000000000000000081525060200191505060405180910390fd5b806006600083815260200190815260200160002060000154141515613222576040517f08c379a000000000000000000000000000000000000000000000000000000000815260040180806020018281038252600f8152602001807f494e56414c49445f53455353494f4e000000000000000000000000000000000081525060200191505060405180910390fd5b60006006600084815260200190815260200160002090503373ffffffffffffffffffffffffffffffffffffffff168160020160009054906101000a900473ffffffffffffffffffffffffffffffffffffffff1673ffffffffffffffffffffffffffffffffffffffff16141515613300576040517f08c379a00000000000000000000000000000000000000000000000000000000081526004018080602001828103825260168152602001807f494e56414c49445f53455353494f4e5f444f43544f520000000000000000000081525060200191505060405180910390fd5b6002600481111561330d57fe5b600360008360010160009054906101000a900473ffffffffffffffffffffffffffffffffffffffff1673ffffffffffffffffffffffffffffffffffffffff1673ffffffffffffffffffffffffffffffffffffffff16815260200190815260200160002060009054906101000a900460ff16600481111561338957fe5b1415156133fe576040517f08c379a00000000000000000000000000000000000000000000000000000000081526004018080602001828103825260178152602001807f50415449454e545f4e4f545f54414b454e5f424c4f4f4400000000000000000081525060200191505060405180910390fd5b6004600681111561340b57fe5b600460008360020160009054906101000a900473ffffffffffffffffffffffffffffffffffffffff1673ffffffffffffffffffffffffffffffffffffffff1673ffffffffffffffffffffffffffffffffffffffff16815260200190815260200160002060009054906101000a900460ff16600681111561348757fe5b141515613522576040517f08c379a00000000000000000000000000000000000000000000000000000000081526004018080602001828103825260218152602001807f444f43544f525f4e4f545f52454345495645445f424c4f4f445f524553554c5481526020017f530000000000000000000000000000000000000000000000000000000000000081525060400191505060405180910390fd5b60038060008360010160009054906101000a900473ffffffffffffffffffffffffffffffffffffffff1673ffffffffffffffffffffffffffffffffffffffff1673ffffffffffffffffffffffffffffffffffffffff16815260200190815260200160002060006101000a81548160ff021916908360048111156135a157fe5b02179055506005600460008360020160009054906101000a900473ffffffffffffffffffffffffffffffffffffffff1673ffffffffffffffffffffffffffffffffffffffff1673ffffffffffffffffffffffffffffffffffffffff16815260200190815260200160002060006101000a81548160ff0219169083600681111561362657fe5b02179055507ef4e2817afb7b5ce94d47670a6a1bcd591148198ab4937daadfbb431b955fd4836040518082815260200191505060405180910390a1505050565b61366f33611fa4565b151561367a57600080fd5b806000811015801561368d575060055481105b1515613701576040517f08c379a00000000000000000000000000000000000000000000000000000000081526004018080602001828103825260128152602001807f494e56414c49445f53455353494f4e5f4944000000000000000000000000000081525060200191505060405180910390fd5b80600660008381526020019081526020016000206000015414151561378e576040517f08c379a000000000000000000000000000000000000000000000000000000000815260040180806020018281038252600f8152602001807f494e56414c49445f53455353494f4e000000000000000000000000000000000081525060200191505060405180910390fd5b60066000838152602001908152602001600020600401548034101515156137b457600080fd5b600660008481526020019081526020016000206004015460006006600086815260200190815260200160002090503373ffffffffffffffffffffffffffffffffffffffff168160010160009054906101000a900473ffffffffffffffffffffffffffffffffffffffff1673ffffffffffffffffffffffffffffffffffffffff161415156138a9576040517f08c379a00000000000000000000000000000000000000000000000000000000081526004018080602001828103825260178152602001807f494e56414c49445f53455353494f4e5f50415449454e5400000000000000000081525060200191505060405180910390fd5b600360048111156138b657fe5b600360008360010160009054906101000a900473ffffffffffffffffffffffffffffffffffffffff1673ffffffffffffffffffffffffffffffffffffffff1673ffffffffffffffffffffffffffffffffffffffff16815260200190815260200160002060009054906101000a900460ff16600481111561393257fe5b1415156139cd576040517f08c379a00000000000000000000000000000000000000000000000000000000081526004018080602001828103825260218152602001807f50415449454e545f4e4f545f52454345495645445f505245534352495054494f81526020017f4e0000000000000000000000000000000000000000000000000000000000000081525060400191505060405180910390fd5b600560068111156139da57fe5b600460008360020160009054906101000a900473ffffffffffffffffffffffffffffffffffffffff1673ffffffffffffffffffffffffffffffffffffffff1673ffffffffffffffffffffffffffffffffffffffff16815260200190815260200160002060009054906101000a900460ff166006811115613a5657fe5b141515613acb576040517f08c379a000000000000000000000000000000000000000000000000000000000815260040180806020018281038252601f8152602001807f444f43544f525f4e4f545f5752495454454e5f505245534352495054494f4e0081525060200191505060405180910390fd5b6004600360008360010160009054906101000a900473ffffffffffffffffffffffffffffffffffffffff1673ffffffffffffffffffffffffffffffffffffffff1673ffffffffffffffffffffffffffffffffffffffff16815260200190815260200160002060006101000a81548160ff02191690836004811115613b4b57fe5b02179055506006600460008360020160009054906101000a900473ffffffffffffffffffffffffffffffffffffffff1673ffffffffffffffffffffffffffffffffffffffff1673ffffffffffffffffffffffffffffffffffffffff16815260200190815260200160002060006101000a81548160ff02191690836006811115613bd057fe5b02179055508060020160009054906101000a900473ffffffffffffffffffffffffffffffffffffffff1673ffffffffffffffffffffffffffffffffffffffff166108fc82600401549081150290604051600060405180830381858888f19350505050158015613c43573d6000803e3d6000fd5b507f27bbf6b6b99358bb53658438b2896fba25e0837435e7a55340ebb40701b81181856040518082815260200191505060405180910390a15080341115613cce573373ffffffffffffffffffffffffffffffffffffffff166108fc8234039081150290604051600060405180830381858888f19350505050158015613ccc573d6000803e3d6000fd5b505b50505050565b613cdc611f4c565b1515613ce757600080fd5b613cf081613fa3565b50565b613d0781600261409f90919063ffffffff16565b8073ffffffffffffffffffffffffffffffffffffffff167f0cbced5fee1e31aa2167a435050f7dc7ed5de6d603cce2b5d547ae365ae3632e60405160405180910390a250565b613d6181600261414f90919063ffffffff16565b8073ffffffffffffffffffffffffffffffffffffffff167fa04c1585bb4aa71bab84cfcc9a7d7accf0eeae3778b33aec8483b354b1ef9e2160405160405180910390a250565b613dbb81600161409f90919063ffffffff16565b8073ffffffffffffffffffffffffffffffffffffffff167f69908b2e63170aa89ef89719bbe3b4c92cccc38653968ab25f4464eff7c28ac860405160405180910390a250565b60008073ffffffffffffffffffffffffffffffffffffffff168273ffffffffffffffffffffffffffffffffffffffff1614151515613e3e57600080fd5b8260000160008373ffffffffffffffffffffffffffffffffffffffff1673ffffffffffffffffffffffffffffffffffffffff16815260200190815260200160002060009054906101000a900460ff16905092915050565b613ea981600061409f90919063ffffffff16565b8073ffffffffffffffffffffffffffffffffffffffff167fa58cff07db0adda3ab7a40bd2f18ab57210bf38391a52ffd2e8eee6b8bdec71a60405160405180910390a250565b613f0381600061414f90919063ffffffff16565b8073ffffffffffffffffffffffffffffffffffffffff167f053a4badf166f01c4b02f6bcb71d2d67734470d0866282e291e73001aa25c76960405160405180910390a250565b613f5d81600161414f90919063ffffffff16565b8073ffffffffffffffffffffffffffffffffffffffff167f493d7cf6a7c880406a55654d6727464ea088bd01d40498e1987a327e68961ab860405160405180910390a250565b600073ffffffffffffffffffffffffffffffffffffffff168173ffffffffffffffffffffffffffffffffffffffff1614151515613fdf57600080fd5b8073ffffffffffffffffffffffffffffffffffffffff16600760009054906101000a900473ffffffffffffffffffffffffffffffffffffffff1673ffffffffffffffffffffffffffffffffffffffff167f8be0079c531659141344cd1fd0a4f28419497f9722a3daafe3b4186f6b6457e060405160405180910390a380600760006101000a81548173ffffffffffffffffffffffffffffffffffffffff021916908373ffffffffffffffffffffffffffffffffffffffff16021790555050565b600073ffffffffffffffffffffffffffffffffffffffff168173ffffffffffffffffffffffffffffffffffffffff16141515156140db57600080fd5b6140e58282613e01565b1515156140f157600080fd5b60018260000160008373ffffffffffffffffffffffffffffffffffffffff1673ffffffffffffffffffffffffffffffffffffffff16815260200190815260200160002060006101000a81548160ff0219169083151502179055505050565b600073ffffffffffffffffffffffffffffffffffffffff168173ffffffffffffffffffffffffffffffffffffffff161415151561418b57600080fd5b6141958282613e01565b15156141a057600080fd5b60008260000160008373ffffffffffffffffffffffffffffffffffffffff1673ffffffffffffffffffffffffffffffffffffffff16815260200190815260200160002060006101000a81548160ff021916908315150217905550505056fea165627a7a723058202cbda3ec9f1cdb36da67099fbd7622954b038bd27052150506cfc935261748970029",
  "source": "pragma solidity ^0.5.0;\n\nimport \"../base/HealthcareBase.sol\";\nimport \"./Ownable.sol\";\n\n\n/**\n * @title Healthcare Core\n * @dev Main Healthcare Supply Chain contract.\n */\ncontract HealthcareCore is HealthcareBase, Ownable {}",
  "sourcePath": "/Users/petercerno/Documents/blockchain/Project_7/contracts/core/HealthcareCore.sol",
  "compiler": {
    "name": "solc",
    "version": "0.5.0+commit.1d4f565a.Emscripten.clang"
  },
  "schemaVersion": "3.0.2",
  "updatedAt": "2019-03-06T19:54:52.047Z",
  "devdoc": {
    "details": "Main Healthcare Supply Chain contract.",
    "methods": {
      "doctorStateToString(uint8)": {
        "details": "Converts the input DoctorState enum to the corresponding string.",
        "params": {
          "_doctorState": "DoctorState enum to be converted."
        },
        "return": "string representation of the input _doctorState enum."
      },
      "getSessionInfo(uint256)": {
        "details": "Returns session info for the given sessionId.",
        "params": {
          "sessionId": "uint256 Id of the session."
        },
        "return": "Session info tuple."
      },
      "isOwner()": {
        "return": "true if `msg.sender` is the owner of the contract."
      },
      "leaveDoctor(uint256)": {
        "details": "Patient leaves the doctor.",
        "params": {
          "sessionId": "uint256 Id of the session."
        }
      },
      "owner()": {
        "return": "the address of the owner."
      },
      "patientStateToString(uint8)": {
        "details": "Converts the input PatientState enum to the corresponding string.",
        "params": {
          "_patientState": "PatientState enum to be converted."
        },
        "return": "string representation of the input _patientState enum."
      },
      "payBill(uint256)": {
        "details": "Patient pays the bill for the session.",
        "params": {
          "sessionId": "uint256 Id of the session."
        }
      },
      "renounceOwnership()": {
        "details": "Allows the current owner to relinquish control of the contract."
      },
      "sendBloodResults(uint256)": {
        "details": "Lab sends blood results to the doctor.",
        "params": {
          "sessionId": "uint256 Id of the session."
        }
      },
      "sendBloodToLab(uint256,address)": {
        "details": "Doctor sends blood to the lab.",
        "params": {
          "lab": "address Lab that analyzes the blood.",
          "sessionId": "uint256 Id of the session."
        }
      },
      "takeBlood(uint256)": {
        "details": "Doctor takes blood from the patient.",
        "params": {
          "sessionId": "uint256 Id of the session."
        }
      },
      "transferOwnership(address)": {
        "details": "Allows the current owner to transfer control of the contract to a newOwner.",
        "params": {
          "newOwner": "The address to transfer ownership to."
        }
      },
      "visitDoctor(address)": {
        "details": "Patient visits a doctor. Creates a new Patient-Doctor-Lab Session.",
        "params": {
          "doctor": "address Doctor to be visited."
        },
        "return": "uint256 sessionId of the visit."
      },
      "writePrescription(uint256)": {
        "details": "Doctor writes a prescription and gives it to the patient.",
        "params": {
          "sessionId": "uint256 Id of the session."
        }
      }
    },
    "title": "Healthcare Core"
  },
  "userdoc": {
    "methods": {
      "renounceOwnership()": {
        "notice": "Renouncing to ownership will leave the contract without an owner. It will not be possible to call the functions with the `onlyOwner` modifier anymore."
      }
    }
  }
}