{
  "contractName": "HealthcareBase",
  "abi": [
    {
      "constant": true,
      "inputs": [
        {
          "name": "",
          "type": "address"
        }
      ],
      "name": "doctorState",
      "outputs": [
        {
          "name": "",
          "type": "uint8"
        }
      ],
      "payable": false,
      "stateMutability": "view",
      "type": "function"
    },
    {
      "constant": true,
      "inputs": [
        {
          "name": "",
          "type": "address"
        }
      ],
      "name": "patientState",
      "outputs": [
        {
          "name": "",
          "type": "uint8"
        }
      ],
      "payable": false,
      "stateMutability": "view",
      "type": "function"
    },
    {
      "constant": false,
      "inputs": [
        {
          "name": "account",
          "type": "address"
        }
      ],
      "name": "addLab",
      "outputs": [],
      "payable": false,
      "stateMutability": "nonpayable",
      "type": "function"
    },
    {
      "constant": false,
      "inputs": [],
      "name": "renounceLab",
      "outputs": [],
      "payable": false,
      "stateMutability": "nonpayable",
      "type": "function"
    },
    {
      "constant": false,
      "inputs": [
        {
          "name": "account",
          "type": "address"
        }
      ],
      "name": "addDoctor",
      "outputs": [],
      "payable": false,
      "stateMutability": "nonpayable",
      "type": "function"
    },
    {
      "constant": true,
      "inputs": [],
      "name": "nextSessionId",
      "outputs": [
        {
          "name": "",
          "type": "uint256"
        }
      ],
      "payable": false,
      "stateMutability": "view",
      "type": "function"
    },
    {
      "constant": true,
      "inputs": [
        {
          "name": "account",
          "type": "address"
        }
      ],
      "name": "isLab",
      "outputs": [
        {
          "name": "",
          "type": "bool"
        }
      ],
      "payable": false,
      "stateMutability": "view",
      "type": "function"
    },
    {
      "constant": false,
      "inputs": [
        {
          "name": "account",
          "type": "address"
        }
      ],
      "name": "addPatient",
      "outputs": [],
      "payable": false,
      "stateMutability": "nonpayable",
      "type": "function"
    },
    {
      "constant": false,
      "inputs": [],
      "name": "renouncePatient",
      "outputs": [],
      "payable": false,
      "stateMutability": "nonpayable",
      "type": "function"
    },
    {
      "constant": true,
      "inputs": [
        {
          "name": "",
          "type": "uint256"
        }
      ],
      "name": "sessions",
      "outputs": [
        {
          "name": "sessionId",
          "type": "uint256"
        },
        {
          "name": "patient",
          "type": "address"
        },
        {
          "name": "doctor",
          "type": "address"
        },
        {
          "name": "lab",
          "type": "address"
        },
        {
          "name": "price",
          "type": "uint256"
        },
        {
          "name": "terminated",
          "type": "bool"
        }
      ],
      "payable": false,
      "stateMutability": "view",
      "type": "function"
    },
    {
      "constant": true,
      "inputs": [
        {
          "name": "account",
          "type": "address"
        }
      ],
      "name": "isPatient",
      "outputs": [
        {
          "name": "",
          "type": "bool"
        }
      ],
      "payable": false,
      "stateMutability": "view",
      "type": "function"
    },
    {
      "constant": true,
      "inputs": [
        {
          "name": "account",
          "type": "address"
        }
      ],
      "name": "isDoctor",
      "outputs": [
        {
          "name": "",
          "type": "bool"
        }
      ],
      "payable": false,
      "stateMutability": "view",
      "type": "function"
    },
    {
      "constant": false,
      "inputs": [],
      "name": "renounceDoctor",
      "outputs": [],
      "payable": false,
      "stateMutability": "nonpayable",
      "type": "function"
    },
    {
      "anonymous": false,
      "inputs": [
        {
          "indexed": false,
          "name": "sessionId",
          "type": "uint256"
        }
      ],
      "name": "DoctorVisited",
      "type": "event"
    },
    {
      "anonymous": false,
      "inputs": [
        {
          "indexed": false,
          "name": "sessionId",
          "type": "uint256"
        }
      ],
      "name": "BloodTaken",
      "type": "event"
    },
    {
      "anonymous": false,
      "inputs": [
        {
          "indexed": false,
          "name": "sessionId",
          "type": "uint256"
        }
      ],
      "name": "BloodSentToLab",
      "type": "event"
    },
    {
      "anonymous": false,
      "inputs": [
        {
          "indexed": false,
          "name": "sessionId",
          "type": "uint256"
        }
      ],
      "name": "BloodResultsReceived",
      "type": "event"
    },
    {
      "anonymous": false,
      "inputs": [
        {
          "indexed": false,
          "name": "sessionId",
          "type": "uint256"
        }
      ],
      "name": "PrescriptionReceived",
      "type": "event"
    },
    {
      "anonymous": false,
      "inputs": [
        {
          "indexed": false,
          "name": "sessionId",
          "type": "uint256"
        }
      ],
      "name": "BillPaid",
      "type": "event"
    },
    {
      "anonymous": false,
      "inputs": [
        {
          "indexed": false,
          "name": "sessionId",
          "type": "uint256"
        }
      ],
      "name": "DoctorLeft",
      "type": "event"
    },
    {
      "anonymous": false,
      "inputs": [
        {
          "indexed": true,
          "name": "account",
          "type": "address"
        }
      ],
      "name": "LabAdded",
      "type": "event"
    },
    {
      "anonymous": false,
      "inputs": [
        {
          "indexed": true,
          "name": "account",
          "type": "address"
        }
      ],
      "name": "LabRemoved",
      "type": "event"
    },
    {
      "anonymous": false,
      "inputs": [
        {
          "indexed": true,
          "name": "account",
          "type": "address"
        }
      ],
      "name": "DoctorAdded",
      "type": "event"
    },
    {
      "anonymous": false,
      "inputs": [
        {
          "indexed": true,
          "name": "account",
          "type": "address"
        }
      ],
      "name": "DoctorRemoved",
      "type": "event"
    },
    {
      "anonymous": false,
      "inputs": [
        {
          "indexed": true,
          "name": "account",
          "type": "address"
        }
      ],
      "name": "PatientAdded",
      "type": "event"
    },
    {
      "anonymous": false,
      "inputs": [
        {
          "indexed": true,
          "name": "account",
          "type": "address"
        }
      ],
      "name": "PatientRemoved",
      "type": "event"
    },
    {
      "constant": true,
      "inputs": [
        {
          "name": "_patientState",
          "type": "uint8"
        }
      ],
      "name": "patientStateToString",
      "outputs": [
        {
          "name": "_patientStateString",
          "type": "string"
        }
      ],
      "payable": false,
      "stateMutability": "pure",
      "type": "function"
    },
    {
      "constant": true,
      "inputs": [
        {
          "name": "_doctorState",
          "type": "uint8"
        }
      ],
      "name": "doctorStateToString",
      "outputs": [
        {
          "name": "_doctorStateString",
          "type": "string"
        }
      ],
      "payable": false,
      "stateMutability": "pure",
      "type": "function"
    },
    {
      "constant": true,
      "inputs": [
        {
          "name": "sessionId",
          "type": "uint256"
        }
      ],
      "name": "getSessionInfo",
      "outputs": [
        {
          "name": "_patient",
          "type": "address"
        },
        {
          "name": "_patientState",
          "type": "string"
        },
        {
          "name": "_doctor",
          "type": "address"
        },
        {
          "name": "_doctorState",
          "type": "string"
        },
        {
          "name": "_lab",
          "type": "address"
        },
        {
          "name": "_price",
          "type": "uint256"
        },
        {
          "name": "_terminated",
          "type": "bool"
        }
      ],
      "payable": false,
      "stateMutability": "view",
      "type": "function"
    },
    {
      "constant": false,
      "inputs": [
        {
          "name": "doctor",
          "type": "address"
        }
      ],
      "name": "visitDoctor",
      "outputs": [
        {
          "name": "sessionId",
          "type": "uint256"
        }
      ],
      "payable": false,
      "stateMutability": "nonpayable",
      "type": "function"
    },
    {
      "constant": false,
      "inputs": [
        {
          "name": "sessionId",
          "type": "uint256"
        }
      ],
      "name": "takeBlood",
      "outputs": [],
      "payable": false,
      "stateMutability": "nonpayable",
      "type": "function"
    },
    {
      "constant": false,
      "inputs": [
        {
          "name": "sessionId",
          "type": "uint256"
        },
        {
          "name": "lab",
          "type": "address"
        }
      ],
      "name": "sendBloodToLab",
      "outputs": [],
      "payable": false,
      "stateMutability": "nonpayable",
      "type": "function"
    },
    {
      "constant": false,
      "inputs": [
        {
          "name": "sessionId",
          "type": "uint256"
        }
      ],
      "name": "sendBloodResults",
      "outputs": [],
      "payable": false,
      "stateMutability": "nonpayable",
      "type": "function"
    },
    {
      "constant": false,
      "inputs": [
        {
          "name": "sessionId",
          "type": "uint256"
        }
      ],
      "name": "writePrescription",
      "outputs": [],
      "payable": false,
      "stateMutability": "nonpayable",
      "type": "function"
    },
    {
      "constant": false,
      "inputs": [
        {
          "name": "sessionId",
          "type": "uint256"
        }
      ],
      "name": "payBill",
      "outputs": [],
      "payable": true,
      "stateMutability": "payable",
      "type": "function"
    },
    {
      "constant": false,
      "inputs": [
        {
          "name": "sessionId",
          "type": "uint256"
        }
      ],
      "name": "leaveDoctor",
      "outputs": [],
      "payable": false,
      "stateMutability": "nonpayable",
      "type": "function"
    }
  ],
  "bytecode": "0x60806040526200001e3362000058640100000000026401000000009004565b6200003833620000c2640100000000026401000000009004565b62000052336200012c640100000000026401000000009004565b620002ee565b6200007c816000620001966401000000000262003d14179091906401000000009004565b8073ffffffffffffffffffffffffffffffffffffffff167fa58cff07db0adda3ab7a40bd2f18ab57210bf38391a52ffd2e8eee6b8bdec71a60405160405180910390a250565b620000e6816001620001966401000000000262003d14179091906401000000009004565b8073ffffffffffffffffffffffffffffffffffffffff167f69908b2e63170aa89ef89719bbe3b4c92cccc38653968ab25f4464eff7c28ac860405160405180910390a250565b62000150816002620001966401000000000262003d14179091906401000000009004565b8073ffffffffffffffffffffffffffffffffffffffff167f0cbced5fee1e31aa2167a435050f7dc7ed5de6d603cce2b5d547ae365ae3632e60405160405180910390a250565b600073ffffffffffffffffffffffffffffffffffffffff168173ffffffffffffffffffffffffffffffffffffffff1614151515620001d357600080fd5b620001ee828262000259640100000000026401000000009004565b151515620001fb57600080fd5b60018260000160008373ffffffffffffffffffffffffffffffffffffffff1673ffffffffffffffffffffffffffffffffffffffff16815260200190815260200160002060006101000a81548160ff0219169083151502179055505050565b60008073ffffffffffffffffffffffffffffffffffffffff168273ffffffffffffffffffffffffffffffffffffffff16141515156200029757600080fd5b8260000160008373ffffffffffffffffffffffffffffffffffffffff1673ffffffffffffffffffffffffffffffffffffffff16815260200190815260200160002060009054906101000a900460ff16905092915050565b613e9f80620002fe6000396000f3fe608060405260043610610133576000357c0100000000000000000000000000000000000000000000000000000000900463ffffffff168063080a3a45146101385780631424614b1461017357806316657da0146101e65780633aa787231461025957806346b6c42c146102aa5780634780468f146102c157806349bbf7da14610312578063554f18681461033d5780635e390880146103f45780636d263ceb1461045d578063730e30e7146104ae5780637b5675e8146104e957806381a07c361461054e57806383c4b7a3146105655780638f9c79ed1461065f578063996440c6146106c85780639e10acf014610731578063a11062d2146108fc578063ae6228c214610913578063c690ef971461094e578063cc0a0216146109a9578063cd48b06214610a60578063f097519014610a9b575b600080fd5b34801561014457600080fd5b506101716004803603602081101561015b57600080fd5b8101908080359060200190929190505050610ac9565b005b34801561017f57600080fd5b506101c26004803603602081101561019657600080fd5b81019080803573ffffffffffffffffffffffffffffffffffffffff169060200190929190505050611011565b604051808260068111156101d257fe5b60ff16815260200191505060405180910390f35b3480156101f257600080fd5b506102356004803603602081101561020957600080fd5b81019080803573ffffffffffffffffffffffffffffffffffffffff169060200190929190505050611031565b6040518082600481111561024557fe5b60ff16815260200191505060405180910390f35b34801561026557600080fd5b506102a86004803603602081101561027c57600080fd5b81019080803573ffffffffffffffffffffffffffffffffffffffff169060200190929190505050611051565b005b3480156102b657600080fd5b506102bf611071565b005b3480156102cd57600080fd5b50610310600480360360208110156102e457600080fd5b81019080803573ffffffffffffffffffffffffffffffffffffffff16906020019092919050505061107c565b005b34801561031e57600080fd5b5061032761109c565b6040518082815260200191505060405180910390f35b34801561034957600080fd5b506103796004803603602081101561036057600080fd5b81019080803560ff1690602001909291905050506110a2565b6040518080602001828103825283818151815260200191508051906020019080838360005b838110156103b957808201518184015260208101905061039e565b50505050905090810190601f1680156103e65780820380516001836020036101000a031916815260200191505b509250505060405180910390f35b34801561040057600080fd5b506104436004803603602081101561041757600080fd5b81019080803573ffffffffffffffffffffffffffffffffffffffff16906020019092919050505061127d565b604051808215151515815260200191505060405180910390f35b34801561046957600080fd5b506104ac6004803603602081101561048057600080fd5b81019080803573ffffffffffffffffffffffffffffffffffffffff16906020019092919050505061129a565b005b3480156104ba57600080fd5b506104e7600480360360208110156104d157600080fd5b81019080803590602001909291905050506112ba565b005b3480156104f557600080fd5b506105386004803603602081101561050c57600080fd5b81019080803573ffffffffffffffffffffffffffffffffffffffff16906020019092919050505061177c565b6040518082815260200191505060405180910390f35b34801561055a57600080fd5b50610563611c80565b005b34801561057157600080fd5b5061059e6004803603602081101561058857600080fd5b8101908080359060200190929190505050611c8b565b604051808781526020018673ffffffffffffffffffffffffffffffffffffffff1673ffffffffffffffffffffffffffffffffffffffff1681526020018573ffffffffffffffffffffffffffffffffffffffff1673ffffffffffffffffffffffffffffffffffffffff1681526020018473ffffffffffffffffffffffffffffffffffffffff1673ffffffffffffffffffffffffffffffffffffffff16815260200183815260200182151515158152602001965050505050505060405180910390f35b34801561066b57600080fd5b506106ae6004803603602081101561068257600080fd5b81019080803573ffffffffffffffffffffffffffffffffffffffff169060200190929190505050611d34565b604051808215151515815260200191505060405180910390f35b3480156106d457600080fd5b50610717600480360360208110156106eb57600080fd5b81019080803573ffffffffffffffffffffffffffffffffffffffff169060200190929190505050611d51565b604051808215151515815260200191505060405180910390f35b34801561073d57600080fd5b5061076a6004803603602081101561075457600080fd5b8101908080359060200190929190505050611d6e565b604051808873ffffffffffffffffffffffffffffffffffffffff1673ffffffffffffffffffffffffffffffffffffffff168152602001806020018773ffffffffffffffffffffffffffffffffffffffff1673ffffffffffffffffffffffffffffffffffffffff168152602001806020018673ffffffffffffffffffffffffffffffffffffffff1673ffffffffffffffffffffffffffffffffffffffff16815260200185815260200184151515158152602001838103835289818151815260200191508051906020019080838360005b83811015610854578082015181840152602081019050610839565b50505050905090810190601f1680156108815780820380516001836020036101000a031916815260200191505b50838103825287818151815260200191508051906020019080838360005b838110156108ba57808201518184015260208101905061089f565b50505050905090810190601f1680156108e75780820380516001836020036101000a031916815260200191505b50995050505050505050505060405180910390f35b34801561090857600080fd5b50610911612039565b005b34801561091f57600080fd5b5061094c6004803603602081101561093657600080fd5b8101908080359060200190929190505050612044565b005b34801561095a57600080fd5b506109a76004803603604081101561097157600080fd5b8101908080359060200190929190803573ffffffffffffffffffffffffffffffffffffffff1690602001909291905050506125a7565b005b3480156109b557600080fd5b506109e5600480360360208110156109cc57600080fd5b81019080803560ff169060200190929190505050612bf5565b6040518080602001828103825283818151815260200191508051906020019080838360005b83811015610a25578082015181840152602081019050610a0a565b50505050905090810190601f168015610a525780820380516001836020036101000a031916815260200191505b509250505060405180910390f35b348015610a6c57600080fd5b50610a9960048036036020811015610a8357600080fd5b8101908080359060200190929190505050612e8a565b005b610ac760048036036020811015610ab157600080fd5b81019080803590602001909291905050506133f6565b005b610ad233611d51565b1515610add57600080fd5b8060008110158015610af0575060055481105b1515610b64576040517f08c379a00000000000000000000000000000000000000000000000000000000081526004018080602001828103825260128152602001807f494e56414c49445f53455353494f4e5f4944000000000000000000000000000081525060200191505060405180910390fd5b806006600083815260200190815260200160002060000154141515610bf1576040517f08c379a000000000000000000000000000000000000000000000000000000000815260040180806020018281038252600f8152602001807f494e56414c49445f53455353494f4e000000000000000000000000000000000081525060200191505060405180910390fd5b60006006600084815260200190815260200160002090503373ffffffffffffffffffffffffffffffffffffffff168160020160009054906101000a900473ffffffffffffffffffffffffffffffffffffffff1673ffffffffffffffffffffffffffffffffffffffff16141515610ccf576040517f08c379a00000000000000000000000000000000000000000000000000000000081526004018080602001828103825260168152602001807f494e56414c49445f53455353494f4e5f444f43544f520000000000000000000081525060200191505060405180910390fd5b60016004811115610cdc57fe5b600360008360010160009054906101000a900473ffffffffffffffffffffffffffffffffffffffff1673ffffffffffffffffffffffffffffffffffffffff1673ffffffffffffffffffffffffffffffffffffffff16815260200190815260200160002060009054906101000a900460ff166004811115610d5857fe5b141515610dcd576040517f08c379a00000000000000000000000000000000000000000000000000000000081526004018080602001828103825260158152602001807f50415449454e545f4e4f545f41545f444f43544f52000000000000000000000081525060200191505060405180910390fd5b60016006811115610dda57fe5b600460008360020160009054906101000a900473ffffffffffffffffffffffffffffffffffffffff1673ffffffffffffffffffffffffffffffffffffffff1673ffffffffffffffffffffffffffffffffffffffff16815260200190815260200160002060009054906101000a900460ff166006811115610e5657fe5b141515610ecb576040517f08c379a000000000000000000000000000000000000000000000000000000000815260040180806020018281038252601b8152602001807f444f43544f525f4e4f545f52454345495645445f50415449454e54000000000081525060200191505060405180910390fd5b6002600360008360010160009054906101000a900473ffffffffffffffffffffffffffffffffffffffff1673ffffffffffffffffffffffffffffffffffffffff1673ffffffffffffffffffffffffffffffffffffffff16815260200190815260200160002060006101000a81548160ff02191690836004811115610f4b57fe5b02179055506002600460008360020160009054906101000a900473ffffffffffffffffffffffffffffffffffffffff1673ffffffffffffffffffffffffffffffffffffffff1673ffffffffffffffffffffffffffffffffffffffff16815260200190815260200160002060006101000a81548160ff02191690836006811115610fd057fe5b02179055507fa83cb81cc64cddabef02d4490f753c3ad5a97d948fdc8bdb71a52895571dd6de836040518082815260200191505060405180910390a1505050565b60046020528060005260406000206000915054906101000a900460ff1681565b60036020528060005260406000206000915054906101000a900460ff1681565b61105a3361127d565b151561106557600080fd5b61106e81613a64565b50565b61107a33613abe565b565b61108533611d51565b151561109057600080fd5b61109981613b18565b50565b60055481565b6060600060048111156110b157fe5b8260048111156110bd57fe5b1415611100576040805190810160405280600481526020017f49646c65000000000000000000000000000000000000000000000000000000008152509050611278565b6001600481111561110d57fe5b82600481111561111957fe5b141561115c576040805190810160405280600881526020017f4174446f63746f720000000000000000000000000000000000000000000000008152509050611277565b6002600481111561116957fe5b82600481111561117557fe5b14156111b8576040805190810160405280600a81526020017f426c6f6f6454616b656e000000000000000000000000000000000000000000008152509050611276565b600360048111156111c557fe5b8260048111156111d157fe5b1415611214576040805190810160405280601481526020017f507265736372697074696f6e52656365697665640000000000000000000000008152509050611275565b60048081111561122057fe5b82600481111561122c57fe5b141561126f576040805190810160405280600881526020017f42696c6c506169640000000000000000000000000000000000000000000000008152509050611274565b600080fd5b5b5b5b5b919050565b6000611293826002613b7290919063ffffffff16565b9050919050565b6112a333611d34565b15156112ae57600080fd5b6112b781613c06565b50565b6112c33361127d565b15156112ce57600080fd5b80600081101580156112e1575060055481105b1515611355576040517f08c379a00000000000000000000000000000000000000000000000000000000081526004018080602001828103825260128152602001807f494e56414c49445f53455353494f4e5f4944000000000000000000000000000081525060200191505060405180910390fd5b8060066000838152602001908152602001600020600001541415156113e2576040517f08c379a000000000000000000000000000000000000000000000000000000000815260040180806020018281038252600f8152602001807f494e56414c49445f53455353494f4e000000000000000000000000000000000081525060200191505060405180910390fd5b60006006600084815260200190815260200160002090503373ffffffffffffffffffffffffffffffffffffffff168160030160009054906101000a900473ffffffffffffffffffffffffffffffffffffffff1673ffffffffffffffffffffffffffffffffffffffff161415156114c0576040517f08c379a00000000000000000000000000000000000000000000000000000000081526004018080602001828103825260138152602001807f494e56414c49445f53455353494f4e5f4c41420000000000000000000000000081525060200191505060405180910390fd5b600260048111156114cd57fe5b600360008360010160009054906101000a900473ffffffffffffffffffffffffffffffffffffffff1673ffffffffffffffffffffffffffffffffffffffff1673ffffffffffffffffffffffffffffffffffffffff16815260200190815260200160002060009054906101000a900460ff16600481111561154957fe5b1415156115be576040517f08c379a00000000000000000000000000000000000000000000000000000000081526004018080602001828103825260178152602001807f50415449454e545f4e4f545f54414b454e5f424c4f4f4400000000000000000081525060200191505060405180910390fd5b600360068111156115cb57fe5b600460008360020160009054906101000a900473ffffffffffffffffffffffffffffffffffffffff1673ffffffffffffffffffffffffffffffffffffffff1673ffffffffffffffffffffffffffffffffffffffff16815260200190815260200160002060009054906101000a900460ff16600681111561164757fe5b1415156116bc576040517f08c379a00000000000000000000000000000000000000000000000000000000081526004018080602001828103825260158152602001807f444f43544f525f4e4f545f53454e545f424c4f4f44000000000000000000000081525060200191505060405180910390fd5b60048060008360020160009054906101000a900473ffffffffffffffffffffffffffffffffffffffff1673ffffffffffffffffffffffffffffffffffffffff1673ffffffffffffffffffffffffffffffffffffffff16815260200190815260200160002060006101000a81548160ff0219169083600681111561173b57fe5b02179055507fb119ec6b29c054884f75bff3db8c3fe581c0d872ccc9de5673e1150cf9b2867b836040518082815260200191505060405180910390a1505050565b600061178733611d34565b151561179257600080fd5b8161179c81611d51565b1515611810576040517f08c379a00000000000000000000000000000000000000000000000000000000081526004018080602001828103825260198152602001807f444f45535f4e4f545f484156455f444f43544f525f524f4c450000000000000081525060200191505060405180910390fd5b60003390506000600481111561182257fe5b600360008373ffffffffffffffffffffffffffffffffffffffff1673ffffffffffffffffffffffffffffffffffffffff16815260200190815260200160002060009054906101000a900460ff16600481111561187a57fe5b1415156118ef576040517f08c379a00000000000000000000000000000000000000000000000000000000081526004018080602001828103825260108152602001807f50415449454e545f4e4f545f49444c450000000000000000000000000000000081525060200191505060405180910390fd5b600060068111156118fc57fe5b600460008673ffffffffffffffffffffffffffffffffffffffff1673ffffffffffffffffffffffffffffffffffffffff16815260200190815260200160002060009054906101000a900460ff16600681111561195457fe5b1415156119c9576040517f08c379a000000000000000000000000000000000000000000000000000000000815260040180806020018281038252600f8152602001807f444f43544f525f4e4f545f49444c45000000000000000000000000000000000081525060200191505060405180910390fd5b6001600360008373ffffffffffffffffffffffffffffffffffffffff1673ffffffffffffffffffffffffffffffffffffffff16815260200190815260200160002060006101000a81548160ff02191690836004811115611a2557fe5b02179055506001600460008673ffffffffffffffffffffffffffffffffffffffff1673ffffffffffffffffffffffffffffffffffffffff16815260200190815260200160002060006101000a81548160ff02191690836006811115611a8657fe5b0217905550600084905060c06040519081016040528060055481526020018373ffffffffffffffffffffffffffffffffffffffff1681526020018273ffffffffffffffffffffffffffffffffffffffff168152602001600073ffffffffffffffffffffffffffffffffffffffff16815260200166038d7ea4c680008152602001600015158152506006600060055481526020019081526020016000206000820151816000015560208201518160010160006101000a81548173ffffffffffffffffffffffffffffffffffffffff021916908373ffffffffffffffffffffffffffffffffffffffff16021790555060408201518160020160006101000a81548173ffffffffffffffffffffffffffffffffffffffff021916908373ffffffffffffffffffffffffffffffffffffffff16021790555060608201518160030160006101000a81548173ffffffffffffffffffffffffffffffffffffffff021916908373ffffffffffffffffffffffffffffffffffffffff1602179055506080820151816004015560a08201518160050160006101000a81548160ff0219169083151502179055509050507f0932a3127d3a0e974a829a652eb025aa2c98ddc25f2cba0971d0fb73d36aec486005546040518082815260200191505060405180910390a16005549350600160055401600581905550505050919050565b611c8933613c60565b565b60066020528060005260406000206000915090508060000154908060010160009054906101000a900473ffffffffffffffffffffffffffffffffffffffff16908060020160009054906101000a900473ffffffffffffffffffffffffffffffffffffffff16908060030160009054906101000a900473ffffffffffffffffffffffffffffffffffffffff16908060040154908060050160009054906101000a900460ff16905086565b6000611d4a826000613b7290919063ffffffff16565b9050919050565b6000611d67826001613b7290919063ffffffff16565b9050919050565b600060606000606060008060008760008110158015611d8e575060055481105b1515611e02576040517f08c379a00000000000000000000000000000000000000000000000000000000081526004018080602001828103825260128152602001807f494e56414c49445f53455353494f4e5f4944000000000000000000000000000081525060200191505060405180910390fd5b806006600083815260200190815260200160002060000154141515611e8f576040517f08c379a000000000000000000000000000000000000000000000000000000000815260040180806020018281038252600f8152602001807f494e56414c49445f53455353494f4e000000000000000000000000000000000081525060200191505060405180910390fd5b6000600660008b815260200190815260200160002090508060010160009054906101000a900473ffffffffffffffffffffffffffffffffffffffff169850611f46600360008360010160009054906101000a900473ffffffffffffffffffffffffffffffffffffffff1673ffffffffffffffffffffffffffffffffffffffff1673ffffffffffffffffffffffffffffffffffffffff16815260200190815260200160002060009054906101000a900460ff166110a2565b97508060020160009054906101000a900473ffffffffffffffffffffffffffffffffffffffff169650611fe8600460008360020160009054906101000a900473ffffffffffffffffffffffffffffffffffffffff1673ffffffffffffffffffffffffffffffffffffffff1673ffffffffffffffffffffffffffffffffffffffff16815260200190815260200160002060009054906101000a900460ff16612bf5565b95508060030160009054906101000a900473ffffffffffffffffffffffffffffffffffffffff169450806004015493508060050160009054906101000a900460ff1692505050919395979092949650565b61204233613cba565b565b61204d33611d34565b151561205857600080fd5b806000811015801561206b575060055481105b15156120df576040517f08c379a00000000000000000000000000000000000000000000000000000000081526004018080602001828103825260128152602001807f494e56414c49445f53455353494f4e5f4944000000000000000000000000000081525060200191505060405180910390fd5b80600660008381526020019081526020016000206000015414151561216c576040517f08c379a000000000000000000000000000000000000000000000000000000000815260040180806020018281038252600f8152602001807f494e56414c49445f53455353494f4e000000000000000000000000000000000081525060200191505060405180910390fd5b60006006600084815260200190815260200160002090503373ffffffffffffffffffffffffffffffffffffffff168160010160009054906101000a900473ffffffffffffffffffffffffffffffffffffffff1673ffffffffffffffffffffffffffffffffffffffff1614151561224a576040517f08c379a00000000000000000000000000000000000000000000000000000000081526004018080602001828103825260178152602001807f494e56414c49445f53455353494f4e5f50415449454e5400000000000000000081525060200191505060405180910390fd5b60048081111561225657fe5b600360008360010160009054906101000a900473ffffffffffffffffffffffffffffffffffffffff1673ffffffffffffffffffffffffffffffffffffffff1673ffffffffffffffffffffffffffffffffffffffff16815260200190815260200160002060009054906101000a900460ff1660048111156122d257fe5b141515612347576040517f08c379a00000000000000000000000000000000000000000000000000000000081526004018080602001828103825260158152602001807f50415449454e545f4e4f545f504149445f42494c4c000000000000000000000081525060200191505060405180910390fd5b60068081111561235357fe5b600460008360020160009054906101000a900473ffffffffffffffffffffffffffffffffffffffff1673ffffffffffffffffffffffffffffffffffffffff1673ffffffffffffffffffffffffffffffffffffffff16815260200190815260200160002060009054906101000a900460ff1660068111156123cf57fe5b141515612444576040517f08c379a00000000000000000000000000000000000000000000000000000000081526004018080602001828103825260198152602001807f444f43544f525f4e4f545f52454345495645445f4d4f4e45590000000000000081525060200191505060405180910390fd5b6000600360008360010160009054906101000a900473ffffffffffffffffffffffffffffffffffffffff1673ffffffffffffffffffffffffffffffffffffffff1673ffffffffffffffffffffffffffffffffffffffff16815260200190815260200160002060006101000a81548160ff021916908360048111156124c457fe5b02179055506000600460008360020160009054906101000a900473ffffffffffffffffffffffffffffffffffffffff1673ffffffffffffffffffffffffffffffffffffffff1673ffffffffffffffffffffffffffffffffffffffff16815260200190815260200160002060006101000a81548160ff0219169083600681111561254957fe5b021790555060018160050160006101000a81548160ff0219169083151502179055507fdf3e9c656630e4f95d2e7f91bb69bdf434878ad5f5820f02a782cc6679573491836040518082815260200191505060405180910390a1505050565b6125b033611d51565b15156125bb57600080fd5b81600081101580156125ce575060055481105b1515612642576040517f08c379a00000000000000000000000000000000000000000000000000000000081526004018080602001828103825260128152602001807f494e56414c49445f53455353494f4e5f4944000000000000000000000000000081525060200191505060405180910390fd5b8060066000838152602001908152602001600020600001541415156126cf576040517f08c379a000000000000000000000000000000000000000000000000000000000815260040180806020018281038252600f8152602001807f494e56414c49445f53455353494f4e000000000000000000000000000000000081525060200191505060405180910390fd5b816126d98161127d565b151561274d576040517f08c379a00000000000000000000000000000000000000000000000000000000081526004018080602001828103825260168152602001807f444f45535f4e4f545f484156455f4c41425f524f4c450000000000000000000081525060200191505060405180910390fd5b60006006600086815260200190815260200160002090503373ffffffffffffffffffffffffffffffffffffffff168160020160009054906101000a900473ffffffffffffffffffffffffffffffffffffffff1673ffffffffffffffffffffffffffffffffffffffff1614151561282b576040517f08c379a00000000000000000000000000000000000000000000000000000000081526004018080602001828103825260168152602001807f494e56414c49445f53455353494f4e5f444f43544f520000000000000000000081525060200191505060405180910390fd5b600073ffffffffffffffffffffffffffffffffffffffff168160030160009054906101000a900473ffffffffffffffffffffffffffffffffffffffff1673ffffffffffffffffffffffffffffffffffffffff161415156128f3576040517f08c379a00000000000000000000000000000000000000000000000000000000081526004018080602001828103825260138152602001807f494e56414c49445f53455353494f4e5f4c41420000000000000000000000000081525060200191505060405180910390fd5b6002600481111561290057fe5b600360008360010160009054906101000a900473ffffffffffffffffffffffffffffffffffffffff1673ffffffffffffffffffffffffffffffffffffffff1673ffffffffffffffffffffffffffffffffffffffff16815260200190815260200160002060009054906101000a900460ff16600481111561297c57fe5b1415156129f1576040517f08c379a00000000000000000000000000000000000000000000000000000000081526004018080602001828103825260178152602001807f50415449454e545f4e4f545f54414b454e5f424c4f4f4400000000000000000081525060200191505060405180910390fd5b600260068111156129fe57fe5b600460008360020160009054906101000a900473ffffffffffffffffffffffffffffffffffffffff1673ffffffffffffffffffffffffffffffffffffffff1673ffffffffffffffffffffffffffffffffffffffff16815260200190815260200160002060009054906101000a900460ff166006811115612a7a57fe5b141515612aef576040517f08c379a00000000000000000000000000000000000000000000000000000000081526004018080602001828103825260198152602001807f444f43544f525f4e4f545f52454345495645445f424c4f4f440000000000000081525060200191505060405180910390fd5b6003600460008360020160009054906101000a900473ffffffffffffffffffffffffffffffffffffffff1673ffffffffffffffffffffffffffffffffffffffff1673ffffffffffffffffffffffffffffffffffffffff16815260200190815260200160002060006101000a81548160ff02191690836006811115612b6f57fe5b0217905550838160030160006101000a81548173ffffffffffffffffffffffffffffffffffffffff021916908373ffffffffffffffffffffffffffffffffffffffff1602179055507f70ceeb2be3074c0eb670fe1e97e5266e781884c6c531be31a98b86275942f19e856040518082815260200191505060405180910390a15050505050565b606060006006811115612c0457fe5b826006811115612c1057fe5b1415612c53576040805190810160405280600481526020017f49646c65000000000000000000000000000000000000000000000000000000008152509050612e85565b60016006811115612c6057fe5b826006811115612c6c57fe5b1415612caf576040805190810160405280600f81526020017f50617469656e74526563656976656400000000000000000000000000000000008152509050612e84565b60026006811115612cbc57fe5b826006811115612cc857fe5b1415612d0b576040805190810160405280600d81526020017f426c6f6f645265636569766564000000000000000000000000000000000000008152509050612e83565b60036006811115612d1857fe5b826006811115612d2457fe5b1415612d67576040805190810160405280600e81526020017f426c6f6f6453656e74546f4c61620000000000000000000000000000000000008152509050612e82565b60046006811115612d7457fe5b826006811115612d8057fe5b1415612dc3576040805190810160405280601481526020017f426c6f6f64526573756c747352656365697665640000000000000000000000008152509050612e81565b60056006811115612dd057fe5b826006811115612ddc57fe5b1415612e1f576040805190810160405280601381526020017f507265736372697074696f6e5772697474656e000000000000000000000000008152509050612e80565b600680811115612e2b57fe5b826006811115612e3757fe5b1415612e7a576040805190810160405280600d81526020017f4d6f6e65795265636569766564000000000000000000000000000000000000008152509050612e7f565b600080fd5b5b5b5b5b5b5b919050565b612e9333611d51565b1515612e9e57600080fd5b8060008110158015612eb1575060055481105b1515612f25576040517f08c379a00000000000000000000000000000000000000000000000000000000081526004018080602001828103825260128152602001807f494e56414c49445f53455353494f4e5f4944000000000000000000000000000081525060200191505060405180910390fd5b806006600083815260200190815260200160002060000154141515612fb2576040517f08c379a000000000000000000000000000000000000000000000000000000000815260040180806020018281038252600f8152602001807f494e56414c49445f53455353494f4e000000000000000000000000000000000081525060200191505060405180910390fd5b60006006600084815260200190815260200160002090503373ffffffffffffffffffffffffffffffffffffffff168160020160009054906101000a900473ffffffffffffffffffffffffffffffffffffffff1673ffffffffffffffffffffffffffffffffffffffff16141515613090576040517f08c379a00000000000000000000000000000000000000000000000000000000081526004018080602001828103825260168152602001807f494e56414c49445f53455353494f4e5f444f43544f520000000000000000000081525060200191505060405180910390fd5b6002600481111561309d57fe5b600360008360010160009054906101000a900473ffffffffffffffffffffffffffffffffffffffff1673ffffffffffffffffffffffffffffffffffffffff1673ffffffffffffffffffffffffffffffffffffffff16815260200190815260200160002060009054906101000a900460ff16600481111561311957fe5b14151561318e576040517f08c379a00000000000000000000000000000000000000000000000000000000081526004018080602001828103825260178152602001807f50415449454e545f4e4f545f54414b454e5f424c4f4f4400000000000000000081525060200191505060405180910390fd5b6004600681111561319b57fe5b600460008360020160009054906101000a900473ffffffffffffffffffffffffffffffffffffffff1673ffffffffffffffffffffffffffffffffffffffff1673ffffffffffffffffffffffffffffffffffffffff16815260200190815260200160002060009054906101000a900460ff16600681111561321757fe5b1415156132b2576040517f08c379a00000000000000000000000000000000000000000000000000000000081526004018080602001828103825260218152602001807f444f43544f525f4e4f545f52454345495645445f424c4f4f445f524553554c5481526020017f530000000000000000000000000000000000000000000000000000000000000081525060400191505060405180910390fd5b60038060008360010160009054906101000a900473ffffffffffffffffffffffffffffffffffffffff1673ffffffffffffffffffffffffffffffffffffffff1673ffffffffffffffffffffffffffffffffffffffff16815260200190815260200160002060006101000a81548160ff0219169083600481111561333157fe5b02179055506005600460008360020160009054906101000a900473ffffffffffffffffffffffffffffffffffffffff1673ffffffffffffffffffffffffffffffffffffffff1673ffffffffffffffffffffffffffffffffffffffff16815260200190815260200160002060006101000a81548160ff021916908360068111156133b657fe5b02179055507ef4e2817afb7b5ce94d47670a6a1bcd591148198ab4937daadfbb431b955fd4836040518082815260200191505060405180910390a1505050565b6133ff33611d34565b151561340a57600080fd5b806000811015801561341d575060055481105b1515613491576040517f08c379a00000000000000000000000000000000000000000000000000000000081526004018080602001828103825260128152602001807f494e56414c49445f53455353494f4e5f4944000000000000000000000000000081525060200191505060405180910390fd5b80600660008381526020019081526020016000206000015414151561351e576040517f08c379a000000000000000000000000000000000000000000000000000000000815260040180806020018281038252600f8152602001807f494e56414c49445f53455353494f4e000000000000000000000000000000000081525060200191505060405180910390fd5b600660008381526020019081526020016000206004015480341015151561354457600080fd5b600660008481526020019081526020016000206004015460006006600086815260200190815260200160002090503373ffffffffffffffffffffffffffffffffffffffff168160010160009054906101000a900473ffffffffffffffffffffffffffffffffffffffff1673ffffffffffffffffffffffffffffffffffffffff16141515613639576040517f08c379a00000000000000000000000000000000000000000000000000000000081526004018080602001828103825260178152602001807f494e56414c49445f53455353494f4e5f50415449454e5400000000000000000081525060200191505060405180910390fd5b6003600481111561364657fe5b600360008360010160009054906101000a900473ffffffffffffffffffffffffffffffffffffffff1673ffffffffffffffffffffffffffffffffffffffff1673ffffffffffffffffffffffffffffffffffffffff16815260200190815260200160002060009054906101000a900460ff1660048111156136c257fe5b14151561375d576040517f08c379a00000000000000000000000000000000000000000000000000000000081526004018080602001828103825260218152602001807f50415449454e545f4e4f545f52454345495645445f505245534352495054494f81526020017f4e0000000000000000000000000000000000000000000000000000000000000081525060400191505060405180910390fd5b6005600681111561376a57fe5b600460008360020160009054906101000a900473ffffffffffffffffffffffffffffffffffffffff1673ffffffffffffffffffffffffffffffffffffffff1673ffffffffffffffffffffffffffffffffffffffff16815260200190815260200160002060009054906101000a900460ff1660068111156137e657fe5b14151561385b576040517f08c379a000000000000000000000000000000000000000000000000000000000815260040180806020018281038252601f8152602001807f444f43544f525f4e4f545f5752495454454e5f505245534352495054494f4e0081525060200191505060405180910390fd5b6004600360008360010160009054906101000a900473ffffffffffffffffffffffffffffffffffffffff1673ffffffffffffffffffffffffffffffffffffffff1673ffffffffffffffffffffffffffffffffffffffff16815260200190815260200160002060006101000a81548160ff021916908360048111156138db57fe5b02179055506006600460008360020160009054906101000a900473ffffffffffffffffffffffffffffffffffffffff1673ffffffffffffffffffffffffffffffffffffffff1673ffffffffffffffffffffffffffffffffffffffff16815260200190815260200160002060006101000a81548160ff0219169083600681111561396057fe5b02179055508060020160009054906101000a900473ffffffffffffffffffffffffffffffffffffffff1673ffffffffffffffffffffffffffffffffffffffff166108fc82600401549081150290604051600060405180830381858888f193505050501580156139d3573d6000803e3d6000fd5b507f27bbf6b6b99358bb53658438b2896fba25e0837435e7a55340ebb40701b81181856040518082815260200191505060405180910390a15080341115613a5e573373ffffffffffffffffffffffffffffffffffffffff166108fc8234039081150290604051600060405180830381858888f19350505050158015613a5c573d6000803e3d6000fd5b505b50505050565b613a78816002613d1490919063ffffffff16565b8073ffffffffffffffffffffffffffffffffffffffff167f0cbced5fee1e31aa2167a435050f7dc7ed5de6d603cce2b5d547ae365ae3632e60405160405180910390a250565b613ad2816002613dc490919063ffffffff16565b8073ffffffffffffffffffffffffffffffffffffffff167fa04c1585bb4aa71bab84cfcc9a7d7accf0eeae3778b33aec8483b354b1ef9e2160405160405180910390a250565b613b2c816001613d1490919063ffffffff16565b8073ffffffffffffffffffffffffffffffffffffffff167f69908b2e63170aa89ef89719bbe3b4c92cccc38653968ab25f4464eff7c28ac860405160405180910390a250565b60008073ffffffffffffffffffffffffffffffffffffffff168273ffffffffffffffffffffffffffffffffffffffff1614151515613baf57600080fd5b8260000160008373ffffffffffffffffffffffffffffffffffffffff1673ffffffffffffffffffffffffffffffffffffffff16815260200190815260200160002060009054906101000a900460ff16905092915050565b613c1a816000613d1490919063ffffffff16565b8073ffffffffffffffffffffffffffffffffffffffff167fa58cff07db0adda3ab7a40bd2f18ab57210bf38391a52ffd2e8eee6b8bdec71a60405160405180910390a250565b613c74816000613dc490919063ffffffff16565b8073ffffffffffffffffffffffffffffffffffffffff167f053a4badf166f01c4b02f6bcb71d2d67734470d0866282e291e73001aa25c76960405160405180910390a250565b613cce816001613dc490919063ffffffff16565b8073ffffffffffffffffffffffffffffffffffffffff167f493d7cf6a7c880406a55654d6727464ea088bd01d40498e1987a327e68961ab860405160405180910390a250565b600073ffffffffffffffffffffffffffffffffffffffff168173ffffffffffffffffffffffffffffffffffffffff1614151515613d5057600080fd5b613d5a8282613b72565b151515613d6657600080fd5b60018260000160008373ffffffffffffffffffffffffffffffffffffffff1673ffffffffffffffffffffffffffffffffffffffff16815260200190815260200160002060006101000a81548160ff0219169083151502179055505050565b600073ffffffffffffffffffffffffffffffffffffffff168173ffffffffffffffffffffffffffffffffffffffff1614151515613e0057600080fd5b613e0a8282613b72565b1515613e1557600080fd5b60008260000160008373ffffffffffffffffffffffffffffffffffffffff1673ffffffffffffffffffffffffffffffffffffffff16815260200190815260200160002060006101000a81548160ff021916908315150217905550505056fea165627a7a72305820552612be790345564574509f2cc33e78e170a165adb992dac5fa053dffab2fb00029",
  "source": "pragma solidity ^0.5.0;\n\nimport \"../access/HealthcareAccessControl.sol\";\n\n\n/**\n * @title Healthcare Base\n * @dev Contract with base functionality in the Healthcare Supply Chain.\n */\ncontract HealthcareBase is HealthcareAccessControl {\n  // Enumeration of Patient states.\n  enum PatientState {\n    Idle,\n    AtDoctor,\n    BloodTaken,\n    PrescriptionReceived,\n    BillPaid\n  }\n\n  // Enumeration of Doctor states.\n  enum DoctorState {\n    Idle,\n    PatientReceived,\n    BloodReceived,\n    BloodSentToLab,\n    BloodResultsReceived,\n    PrescriptionWritten,\n    MoneyReceived\n  }\n\n  // Mapping from Patient address to Patient state.\n  mapping (address => PatientState) public patientState;\n\n  // Mapping from Doctor address to Doctor state.\n  mapping (address => DoctorState) public doctorState;\n\n  // Id of the next Session.\n  uint256 public nextSessionId;\n\n  // Maps Session id to Session struct.\n  mapping (uint256 => Session) public sessions;\n\n  // Patient-Doctor-Lab Session.\n  struct Session {\n    // Session Id.\n    uint256 sessionId;\n    // Patient involved in the session.\n    address patient;\n    // Doctor involved in the session.\n    address payable doctor;\n    // Lab involved in the session.\n    address lab;\n    // Price for the session.\n    uint256 price;\n    // Whether the session is terminated.\n    bool terminated;\n  }\n\n  event DoctorVisited(uint256 sessionId);\n  event BloodTaken(uint256 sessionId);\n  event BloodSentToLab(uint256 sessionId);\n  event BloodResultsReceived(uint256 sessionId);\n  event PrescriptionReceived(uint256 sessionId);\n  event BillPaid(uint256 sessionId);\n  event DoctorLeft(uint256 sessionId);\n\n  modifier isValidSessionId(uint256 sessionId) {\n    require(\n        (sessionId >= 0) &&\n        (sessionId < nextSessionId), \"INVALID_SESSION_ID\");\n    require(sessions[sessionId].sessionId == sessionId, \"INVALID_SESSION\");\n    _;\n  }\n\n  modifier paidEnough(uint256 price) {\n    require(msg.value >= price);\n    _;\n  }\n\n  modifier refundIfNeeded(uint256 price) {\n    _;\n    if (msg.value > price) {\n      msg.sender.transfer(msg.value - price);\n    }\n  }\n\n  /**\n   * @dev Converts the input PatientState enum to the corresponding string.\n   * @param _patientState PatientState enum to be converted.\n   * @return string representation of the input _patientState enum.\n   */\n  function patientStateToString(PatientState _patientState) public pure\n  returns (string memory _patientStateString) {\n    if (_patientState == PatientState.Idle) {\n      _patientStateString = \"Idle\";\n    } else if (_patientState == PatientState.AtDoctor) {\n      _patientStateString = \"AtDoctor\";\n    } else if (_patientState == PatientState.BloodTaken) {\n      _patientStateString = \"BloodTaken\";\n    } else if (_patientState == PatientState.PrescriptionReceived) {\n      _patientStateString = \"PrescriptionReceived\";\n    } else if (_patientState == PatientState.BillPaid) {\n      _patientStateString = \"BillPaid\";\n    } else {\n      revert();\n    }\n  }\n\n  /**\n   * @dev Converts the input DoctorState enum to the corresponding string.\n   * @param _doctorState DoctorState enum to be converted.\n   * @return string representation of the input _doctorState enum.\n   */\n  function doctorStateToString(DoctorState _doctorState) public pure\n  returns (string memory _doctorStateString) {\n    if (_doctorState == DoctorState.Idle) {\n      _doctorStateString = \"Idle\";\n    } else if (_doctorState == DoctorState.PatientReceived) {\n      _doctorStateString = \"PatientReceived\";\n    } else if (_doctorState == DoctorState.BloodReceived) {\n      _doctorStateString = \"BloodReceived\";\n    } else if (_doctorState == DoctorState.BloodSentToLab) {\n      _doctorStateString = \"BloodSentToLab\";\n    } else if (_doctorState == DoctorState.BloodResultsReceived) {\n      _doctorStateString = \"BloodResultsReceived\";\n    } else if (_doctorState == DoctorState.PrescriptionWritten) {\n      _doctorStateString = \"PrescriptionWritten\";\n    } else if (_doctorState == DoctorState.MoneyReceived) {\n      _doctorStateString = \"MoneyReceived\";\n    } else {\n      revert();\n    }\n  }\n\n  /**\n   * @dev Returns session info for the given sessionId.\n   * @param sessionId uint256 Id of the session.\n   * @return Session info tuple.\n   */\n  function getSessionInfo(uint256 sessionId) public view\n    isValidSessionId(sessionId) returns (\n      address _patient,\n      string memory _patientState,\n      address _doctor,\n      string memory _doctorState,\n      address _lab,\n      uint256 _price,\n      bool _terminated) {\n    Session storage session = sessions[sessionId];\n    _patient = session.patient;\n    _patientState = patientStateToString(patientState[session.patient]);\n    _doctor = session.doctor;\n    _doctorState = doctorStateToString(doctorState[session.doctor]);\n    _lab = session.lab;\n    _price = session.price;\n    _terminated = session.terminated;\n  }\n\n  /**\n   * @dev Patient visits a doctor. Creates a new Patient-Doctor-Lab Session.\n   * @param doctor address Doctor to be visited.\n   * @return uint256 sessionId of the visit.\n   */\n  function visitDoctor(address doctor) public\n    onlyPatient isDoctorModifier(doctor) returns (uint256 sessionId) {\n    address patient = msg.sender;\n    require(patientState[patient] == PatientState.Idle, \"PATIENT_NOT_IDLE\");\n    require(doctorState[doctor] == DoctorState.Idle, \"DOCTOR_NOT_IDLE\");\n    patientState[patient] = PatientState.AtDoctor;\n    doctorState[doctor] = DoctorState.PatientReceived;\n    // HACK: Here we convert the doctor address to a payable address.\n    // We could have marked the input parameter doctor as payble, but it\n    // would break solhint.\n    address payable doctorPayable = address(uint160(doctor));\n    sessions[nextSessionId] = Session(\n        nextSessionId, patient, doctorPayable, address(0), 1 finney, false);\n    emit DoctorVisited(nextSessionId);\n    sessionId = nextSessionId;\n    nextSessionId = nextSessionId + 1;\n  }\n\n  /**\n   * @dev Doctor takes blood from the patient.\n   * @param sessionId uint256 Id of the session.\n   */\n  function takeBlood(uint256 sessionId) public\n    onlyDoctor isValidSessionId(sessionId) {\n    Session storage session = sessions[sessionId];\n    require(session.doctor == msg.sender, \"INVALID_SESSION_DOCTOR\");\n    require(patientState[session.patient] == PatientState.AtDoctor,\n        \"PATIENT_NOT_AT_DOCTOR\");\n    require(doctorState[session.doctor] == DoctorState.PatientReceived,\n        \"DOCTOR_NOT_RECEIVED_PATIENT\");\n    patientState[session.patient] = PatientState.BloodTaken;\n    doctorState[session.doctor] = DoctorState.BloodReceived;\n    emit BloodTaken(sessionId);\n  }\n\n  /**\n   * @dev Doctor sends blood to the lab.\n   * @param sessionId uint256 Id of the session.\n   * @param lab address Lab that analyzes the blood.\n   */\n  function sendBloodToLab(uint256 sessionId, address lab) public\n    onlyDoctor isValidSessionId(sessionId) isLabModifier(lab) {\n    Session storage session = sessions[sessionId];\n    require(session.doctor == msg.sender, \"INVALID_SESSION_DOCTOR\");\n    require(session.lab == address(0), \"INVALID_SESSION_LAB\");\n    require(patientState[session.patient] == PatientState.BloodTaken,\n        \"PATIENT_NOT_TAKEN_BLOOD\");\n    require(doctorState[session.doctor] == DoctorState.BloodReceived,\n        \"DOCTOR_NOT_RECEIVED_BLOOD\");\n    doctorState[session.doctor] = DoctorState.BloodSentToLab;\n    session.lab = lab;\n    emit BloodSentToLab(sessionId);\n  }\n\n  /**\n   * @dev Lab sends blood results to the doctor.\n   * @param sessionId uint256 Id of the session.\n   */\n  function sendBloodResults(uint256 sessionId) public\n    onlyLab isValidSessionId(sessionId) {\n    Session storage session = sessions[sessionId];\n    require(session.lab == msg.sender, \"INVALID_SESSION_LAB\");\n    require(patientState[session.patient] == PatientState.BloodTaken,\n        \"PATIENT_NOT_TAKEN_BLOOD\");\n    require(doctorState[session.doctor] == DoctorState.BloodSentToLab,\n        \"DOCTOR_NOT_SENT_BLOOD\");\n    doctorState[session.doctor] = DoctorState.BloodResultsReceived;\n    emit BloodResultsReceived(sessionId);\n  }\n\n  /**\n   * @dev Doctor writes a prescription and gives it to the patient.\n   * @param sessionId uint256 Id of the session.\n   */\n  function writePrescription(uint256 sessionId) public\n    onlyDoctor isValidSessionId(sessionId) {\n    Session storage session = sessions[sessionId];\n    require(session.doctor == msg.sender, \"INVALID_SESSION_DOCTOR\");\n    require(patientState[session.patient] == PatientState.BloodTaken,\n        \"PATIENT_NOT_TAKEN_BLOOD\");\n    require(doctorState[session.doctor] == DoctorState.BloodResultsReceived,\n        \"DOCTOR_NOT_RECEIVED_BLOOD_RESULTS\");\n    patientState[session.patient] = PatientState.PrescriptionReceived;\n    doctorState[session.doctor] = DoctorState.PrescriptionWritten;\n    emit PrescriptionReceived(sessionId);\n  }\n\n  /**\n   * @dev Patient pays the bill for the session.\n   * @param sessionId uint256 Id of the session.\n   */\n  function payBill(uint256 sessionId) public payable\n    onlyPatient isValidSessionId(sessionId)\n    paidEnough(sessions[sessionId].price)\n    refundIfNeeded(sessions[sessionId].price) {\n    Session storage session = sessions[sessionId];\n    require(session.patient == msg.sender, \"INVALID_SESSION_PATIENT\");\n    require(patientState[session.patient] == PatientState.PrescriptionReceived,\n        \"PATIENT_NOT_RECEIVED_PRESCRIPTION\");\n    require(doctorState[session.doctor] == DoctorState.PrescriptionWritten,\n        \"DOCTOR_NOT_WRITTEN_PRESCRIPTION\");\n    patientState[session.patient] = PatientState.BillPaid;\n    doctorState[session.doctor] = DoctorState.MoneyReceived;\n    session.doctor.transfer(session.price);\n    emit BillPaid(sessionId);\n  }\n\n  /**\n   * @dev Patient leaves the doctor.\n   * @param sessionId uint256 Id of the session.\n   */\n  function leaveDoctor(uint256 sessionId) public\n    onlyPatient isValidSessionId(sessionId) {\n    Session storage session = sessions[sessionId];\n    require(session.patient == msg.sender, \"INVALID_SESSION_PATIENT\");\n    require(patientState[session.patient] == PatientState.BillPaid,\n        \"PATIENT_NOT_PAID_BILL\");\n    require(doctorState[session.doctor] == DoctorState.MoneyReceived,\n        \"DOCTOR_NOT_RECEIVED_MONEY\");\n    patientState[session.patient] = PatientState.Idle;\n    doctorState[session.doctor] = DoctorState.Idle;\n    session.terminated = true;\n    emit DoctorLeft(sessionId);\n  }\n}",
  "sourcePath": "/Users/petercerno/Documents/blockchain/Project_7/contracts/base/HealthcareBase.sol",
  "compiler": {
    "name": "solc",
    "version": "0.5.0+commit.1d4f565a.Emscripten.clang"
  },
  "schemaVersion": "3.0.2",
  "updatedAt": "2019-03-06T19:53:00.546Z",
  "devdoc": {
    "details": "Contract with base functionality in the Healthcare Supply Chain.",
    "methods": {
      "doctorStateToString(uint8)": {
        "details": "Converts the input DoctorState enum to the corresponding string.",
        "params": {
          "_doctorState": "DoctorState enum to be converted."
        },
        "return": "string representation of the input _doctorState enum."
      },
      "getSessionInfo(uint256)": {
        "details": "Returns session info for the given sessionId.",
        "params": {
          "sessionId": "uint256 Id of the session."
        },
        "return": "Session info tuple."
      },
      "leaveDoctor(uint256)": {
        "details": "Patient leaves the doctor.",
        "params": {
          "sessionId": "uint256 Id of the session."
        }
      },
      "patientStateToString(uint8)": {
        "details": "Converts the input PatientState enum to the corresponding string.",
        "params": {
          "_patientState": "PatientState enum to be converted."
        },
        "return": "string representation of the input _patientState enum."
      },
      "payBill(uint256)": {
        "details": "Patient pays the bill for the session.",
        "params": {
          "sessionId": "uint256 Id of the session."
        }
      },
      "sendBloodResults(uint256)": {
        "details": "Lab sends blood results to the doctor.",
        "params": {
          "sessionId": "uint256 Id of the session."
        }
      },
      "sendBloodToLab(uint256,address)": {
        "details": "Doctor sends blood to the lab.",
        "params": {
          "lab": "address Lab that analyzes the blood.",
          "sessionId": "uint256 Id of the session."
        }
      },
      "takeBlood(uint256)": {
        "details": "Doctor takes blood from the patient.",
        "params": {
          "sessionId": "uint256 Id of the session."
        }
      },
      "visitDoctor(address)": {
        "details": "Patient visits a doctor. Creates a new Patient-Doctor-Lab Session.",
        "params": {
          "doctor": "address Doctor to be visited."
        },
        "return": "uint256 sessionId of the visit."
      },
      "writePrescription(uint256)": {
        "details": "Doctor writes a prescription and gives it to the patient.",
        "params": {
          "sessionId": "uint256 Id of the session."
        }
      }
    },
    "title": "Healthcare Base"
  },
  "userdoc": {
    "methods": {}
  }
}