{
  "contractName": "HealthcareAccessControl",
  "abi": [
    {
      "constant": false,
      "inputs": [
        {
          "name": "account",
          "type": "address"
        }
      ],
      "name": "addLab",
      "outputs": [],
      "payable": false,
      "stateMutability": "nonpayable",
      "type": "function"
    },
    {
      "constant": false,
      "inputs": [],
      "name": "renounceLab",
      "outputs": [],
      "payable": false,
      "stateMutability": "nonpayable",
      "type": "function"
    },
    {
      "constant": false,
      "inputs": [
        {
          "name": "account",
          "type": "address"
        }
      ],
      "name": "addDoctor",
      "outputs": [],
      "payable": false,
      "stateMutability": "nonpayable",
      "type": "function"
    },
    {
      "constant": true,
      "inputs": [
        {
          "name": "account",
          "type": "address"
        }
      ],
      "name": "isLab",
      "outputs": [
        {
          "name": "",
          "type": "bool"
        }
      ],
      "payable": false,
      "stateMutability": "view",
      "type": "function"
    },
    {
      "constant": false,
      "inputs": [
        {
          "name": "account",
          "type": "address"
        }
      ],
      "name": "addPatient",
      "outputs": [],
      "payable": false,
      "stateMutability": "nonpayable",
      "type": "function"
    },
    {
      "constant": false,
      "inputs": [],
      "name": "renouncePatient",
      "outputs": [],
      "payable": false,
      "stateMutability": "nonpayable",
      "type": "function"
    },
    {
      "constant": true,
      "inputs": [
        {
          "name": "account",
          "type": "address"
        }
      ],
      "name": "isPatient",
      "outputs": [
        {
          "name": "",
          "type": "bool"
        }
      ],
      "payable": false,
      "stateMutability": "view",
      "type": "function"
    },
    {
      "constant": true,
      "inputs": [
        {
          "name": "account",
          "type": "address"
        }
      ],
      "name": "isDoctor",
      "outputs": [
        {
          "name": "",
          "type": "bool"
        }
      ],
      "payable": false,
      "stateMutability": "view",
      "type": "function"
    },
    {
      "constant": false,
      "inputs": [],
      "name": "renounceDoctor",
      "outputs": [],
      "payable": false,
      "stateMutability": "nonpayable",
      "type": "function"
    },
    {
      "anonymous": false,
      "inputs": [
        {
          "indexed": true,
          "name": "account",
          "type": "address"
        }
      ],
      "name": "LabAdded",
      "type": "event"
    },
    {
      "anonymous": false,
      "inputs": [
        {
          "indexed": true,
          "name": "account",
          "type": "address"
        }
      ],
      "name": "LabRemoved",
      "type": "event"
    },
    {
      "anonymous": false,
      "inputs": [
        {
          "indexed": true,
          "name": "account",
          "type": "address"
        }
      ],
      "name": "DoctorAdded",
      "type": "event"
    },
    {
      "anonymous": false,
      "inputs": [
        {
          "indexed": true,
          "name": "account",
          "type": "address"
        }
      ],
      "name": "DoctorRemoved",
      "type": "event"
    },
    {
      "anonymous": false,
      "inputs": [
        {
          "indexed": true,
          "name": "account",
          "type": "address"
        }
      ],
      "name": "PatientAdded",
      "type": "event"
    },
    {
      "anonymous": false,
      "inputs": [
        {
          "indexed": true,
          "name": "account",
          "type": "address"
        }
      ],
      "name": "PatientRemoved",
      "type": "event"
    }
  ],
  "bytecode": "0x608060405261001c33610051640100000000026401000000009004565b610034336100b8640100000000026401000000009004565b61004c3361011f640100000000026401000000009004565b6102d9565b61007281600061018664010000000002610699179091906401000000009004565b8073ffffffffffffffffffffffffffffffffffffffff167fa58cff07db0adda3ab7a40bd2f18ab57210bf38391a52ffd2e8eee6b8bdec71a60405160405180910390a250565b6100d981600161018664010000000002610699179091906401000000009004565b8073ffffffffffffffffffffffffffffffffffffffff167f69908b2e63170aa89ef89719bbe3b4c92cccc38653968ab25f4464eff7c28ac860405160405180910390a250565b61014081600261018664010000000002610699179091906401000000009004565b8073ffffffffffffffffffffffffffffffffffffffff167f0cbced5fee1e31aa2167a435050f7dc7ed5de6d603cce2b5d547ae365ae3632e60405160405180910390a250565b600073ffffffffffffffffffffffffffffffffffffffff168173ffffffffffffffffffffffffffffffffffffffff16141515156101c257600080fd5b6101db8282610245640100000000026401000000009004565b1515156101e757600080fd5b60018260000160008373ffffffffffffffffffffffffffffffffffffffff1673ffffffffffffffffffffffffffffffffffffffff16815260200190815260200160002060006101000a81548160ff0219169083151502179055505050565b60008073ffffffffffffffffffffffffffffffffffffffff168273ffffffffffffffffffffffffffffffffffffffff161415151561028257600080fd5b8260000160008373ffffffffffffffffffffffffffffffffffffffff1673ffffffffffffffffffffffffffffffffffffffff16815260200190815260200160002060009054906101000a900460ff16905092915050565b610824806102e86000396000f3fe608060405260043610610099576000357c0100000000000000000000000000000000000000000000000000000000900463ffffffff1680633aa787231461009e57806346b6c42c146100ef5780634780468f146101065780635e390880146101575780636d263ceb146101c057806381a07c36146102115780638f9c79ed14610228578063996440c614610291578063a11062d2146102fa575b600080fd5b3480156100aa57600080fd5b506100ed600480360360208110156100c157600080fd5b81019080803573ffffffffffffffffffffffffffffffffffffffff169060200190929190505050610311565b005b3480156100fb57600080fd5b50610104610331565b005b34801561011257600080fd5b506101556004803603602081101561012957600080fd5b81019080803573ffffffffffffffffffffffffffffffffffffffff16906020019092919050505061033c565b005b34801561016357600080fd5b506101a66004803603602081101561017a57600080fd5b81019080803573ffffffffffffffffffffffffffffffffffffffff16906020019092919050505061035c565b604051808215151515815260200191505060405180910390f35b3480156101cc57600080fd5b5061020f600480360360208110156101e357600080fd5b81019080803573ffffffffffffffffffffffffffffffffffffffff169060200190929190505050610379565b005b34801561021d57600080fd5b50610226610399565b005b34801561023457600080fd5b506102776004803603602081101561024b57600080fd5b81019080803573ffffffffffffffffffffffffffffffffffffffff1690602001909291905050506103a4565b604051808215151515815260200191505060405180910390f35b34801561029d57600080fd5b506102e0600480360360208110156102b457600080fd5b81019080803573ffffffffffffffffffffffffffffffffffffffff1690602001909291905050506103c1565b604051808215151515815260200191505060405180910390f35b34801561030657600080fd5b5061030f6103de565b005b61031a3361035c565b151561032557600080fd5b61032e816103e9565b50565b61033a33610443565b565b610345336103c1565b151561035057600080fd5b6103598161049d565b50565b60006103728260026104f790919063ffffffff16565b9050919050565b610382336103a4565b151561038d57600080fd5b6103968161058b565b50565b6103a2336105e5565b565b60006103ba8260006104f790919063ffffffff16565b9050919050565b60006103d78260016104f790919063ffffffff16565b9050919050565b6103e73361063f565b565b6103fd81600261069990919063ffffffff16565b8073ffffffffffffffffffffffffffffffffffffffff167f0cbced5fee1e31aa2167a435050f7dc7ed5de6d603cce2b5d547ae365ae3632e60405160405180910390a250565b61045781600261074990919063ffffffff16565b8073ffffffffffffffffffffffffffffffffffffffff167fa04c1585bb4aa71bab84cfcc9a7d7accf0eeae3778b33aec8483b354b1ef9e2160405160405180910390a250565b6104b181600161069990919063ffffffff16565b8073ffffffffffffffffffffffffffffffffffffffff167f69908b2e63170aa89ef89719bbe3b4c92cccc38653968ab25f4464eff7c28ac860405160405180910390a250565b60008073ffffffffffffffffffffffffffffffffffffffff168273ffffffffffffffffffffffffffffffffffffffff161415151561053457600080fd5b8260000160008373ffffffffffffffffffffffffffffffffffffffff1673ffffffffffffffffffffffffffffffffffffffff16815260200190815260200160002060009054906101000a900460ff16905092915050565b61059f81600061069990919063ffffffff16565b8073ffffffffffffffffffffffffffffffffffffffff167fa58cff07db0adda3ab7a40bd2f18ab57210bf38391a52ffd2e8eee6b8bdec71a60405160405180910390a250565b6105f981600061074990919063ffffffff16565b8073ffffffffffffffffffffffffffffffffffffffff167f053a4badf166f01c4b02f6bcb71d2d67734470d0866282e291e73001aa25c76960405160405180910390a250565b61065381600161074990919063ffffffff16565b8073ffffffffffffffffffffffffffffffffffffffff167f493d7cf6a7c880406a55654d6727464ea088bd01d40498e1987a327e68961ab860405160405180910390a250565b600073ffffffffffffffffffffffffffffffffffffffff168173ffffffffffffffffffffffffffffffffffffffff16141515156106d557600080fd5b6106df82826104f7565b1515156106eb57600080fd5b60018260000160008373ffffffffffffffffffffffffffffffffffffffff1673ffffffffffffffffffffffffffffffffffffffff16815260200190815260200160002060006101000a81548160ff0219169083151502179055505050565b600073ffffffffffffffffffffffffffffffffffffffff168173ffffffffffffffffffffffffffffffffffffffff161415151561078557600080fd5b61078f82826104f7565b151561079a57600080fd5b60008260000160008373ffffffffffffffffffffffffffffffffffffffff1673ffffffffffffffffffffffffffffffffffffffff16815260200190815260200160002060006101000a81548160ff021916908315150217905550505056fea165627a7a723058203db853455d087f401e8d6dde79fc0069a795f73747a4c4b36dbecda8bc36e7af0029",
  "source": "pragma solidity ^0.5.0;\n\nimport \"./roles/PatientRole.sol\";\nimport \"./roles/DoctorRole.sol\";\nimport \"./roles/LabRole.sol\";\n\n\n/**\n * @title Healthcare Access Control\n * @dev Contract for managing Access Control for Healthcare Supply Chain.\n */\ncontract HealthcareAccessControl is PatientRole, DoctorRole, LabRole {\n  modifier isPatientModifier(address patient) {\n    require(isPatient(patient), \"DOES_NOT_HAVE_PATIENT_ROLE\");\n    _;\n  }\n\n  modifier isDoctorModifier(address doctor) {\n    require(isDoctor(doctor), \"DOES_NOT_HAVE_DOCTOR_ROLE\");\n    _;\n  }\n\n  modifier isLabModifier(address lab) {\n    require(isLab(lab), \"DOES_NOT_HAVE_LAB_ROLE\");\n    _;\n  }\n}",
  "sourcePath": "/Users/petercerno/Documents/blockchain/Project_7/contracts/access/HealthcareAccessControl.sol",
  "compiler": {
    "name": "solc",
    "version": "0.5.0+commit.1d4f565a.Emscripten.clang"
  },
  "schemaVersion": "3.0.2",
  "updatedAt": "2019-03-06T19:53:00.531Z",
  "devdoc": {
    "details": "Contract for managing Access Control for Healthcare Supply Chain.",
    "methods": {},
    "title": "Healthcare Access Control"
  },
  "userdoc": {
    "methods": {}
  }
}